{
  "_format": "hh-sol-artifact-1",
  "contractName": "NFT",
  "sourceName": "contracts/NFT.sol",
  "abi": [
    {
      "inputs": [
        {
          "internalType": "uint96",
          "name": "_porcentajeReventa",
          "type": "uint96"
        }
      ],
      "stateMutability": "nonpayable",
      "type": "constructor"
    },
    {
      "anonymous": false,
      "inputs": [
        {
          "indexed": true,
          "internalType": "address",
          "name": "owner",
          "type": "address"
        },
        {
          "indexed": true,
          "internalType": "address",
          "name": "approved",
          "type": "address"
        },
        {
          "indexed": true,
          "internalType": "uint256",
          "name": "tokenId",
          "type": "uint256"
        }
      ],
      "name": "Approval",
      "type": "event"
    },
    {
      "anonymous": false,
      "inputs": [
        {
          "indexed": true,
          "internalType": "address",
          "name": "owner",
          "type": "address"
        },
        {
          "indexed": true,
          "internalType": "address",
          "name": "operator",
          "type": "address"
        },
        {
          "indexed": false,
          "internalType": "bool",
          "name": "approved",
          "type": "bool"
        }
      ],
      "name": "ApprovalForAll",
      "type": "event"
    },
    {
      "anonymous": false,
      "inputs": [
        {
          "indexed": false,
          "internalType": "uint256",
          "name": "_fromTokenId",
          "type": "uint256"
        },
        {
          "indexed": false,
          "internalType": "uint256",
          "name": "_toTokenId",
          "type": "uint256"
        }
      ],
      "name": "BatchMetadataUpdate",
      "type": "event"
    },
    {
      "anonymous": false,
      "inputs": [
        {
          "indexed": false,
          "internalType": "uint256",
          "name": "_tokenId",
          "type": "uint256"
        }
      ],
      "name": "MetadataUpdate",
      "type": "event"
    },
    {
      "anonymous": false,
      "inputs": [
        {
          "indexed": true,
          "internalType": "address",
          "name": "previousOwner",
          "type": "address"
        },
        {
          "indexed": true,
          "internalType": "address",
          "name": "newOwner",
          "type": "address"
        }
      ],
      "name": "OwnershipTransferred",
      "type": "event"
    },
    {
      "anonymous": false,
      "inputs": [
        {
          "indexed": false,
          "internalType": "uint256",
          "name": "tokenId",
          "type": "uint256"
        },
        {
          "components": [
            {
              "internalType": "address payable",
              "name": "account",
              "type": "address"
            },
            {
              "internalType": "uint96",
              "name": "value",
              "type": "uint96"
            }
          ],
          "indexed": false,
          "internalType": "struct LibPart.Part[]",
          "name": "royalties",
          "type": "tuple[]"
        }
      ],
      "name": "RoyaltiesSet",
      "type": "event"
    },
    {
      "anonymous": false,
      "inputs": [
        {
          "indexed": true,
          "internalType": "address",
          "name": "from",
          "type": "address"
        },
        {
          "indexed": true,
          "internalType": "address",
          "name": "to",
          "type": "address"
        },
        {
          "indexed": true,
          "internalType": "uint256",
          "name": "tokenId",
          "type": "uint256"
        }
      ],
      "name": "Transfer",
      "type": "event"
    },
    {
      "inputs": [
        {
          "internalType": "address",
          "name": "to",
          "type": "address"
        },
        {
          "internalType": "uint256",
          "name": "tokenId",
          "type": "uint256"
        }
      ],
      "name": "approve",
      "outputs": [],
      "stateMutability": "nonpayable",
      "type": "function"
    },
    {
      "inputs": [
        {
          "internalType": "address",
          "name": "owner",
          "type": "address"
        }
      ],
      "name": "balanceOf",
      "outputs": [
        {
          "internalType": "uint256",
          "name": "",
          "type": "uint256"
        }
      ],
      "stateMutability": "view",
      "type": "function"
    },
    {
      "inputs": [],
      "name": "cuentaMaestra",
      "outputs": [
        {
          "internalType": "address payable",
          "name": "",
          "type": "address"
        }
      ],
      "stateMutability": "view",
      "type": "function"
    },
    {
      "inputs": [
        {
          "internalType": "uint256",
          "name": "",
          "type": "uint256"
        }
      ],
      "name": "entradas",
      "outputs": [
        {
          "internalType": "uint256",
          "name": "idEntrada",
          "type": "uint256"
        },
        {
          "internalType": "string",
          "name": "descripcion",
          "type": "string"
        }
      ],
      "stateMutability": "view",
      "type": "function"
    },
    {
      "inputs": [
        {
          "internalType": "uint256",
          "name": "",
          "type": "uint256"
        }
      ],
      "name": "entradasEventos",
      "outputs": [
        {
          "internalType": "uint256",
          "name": "idEvento",
          "type": "uint256"
        },
        {
          "internalType": "string",
          "name": "fecha",
          "type": "string"
        },
        {
          "internalType": "string",
          "name": "nombre",
          "type": "string"
        },
        {
          "internalType": "string",
          "name": "descripcion",
          "type": "string"
        }
      ],
      "stateMutability": "view",
      "type": "function"
    },
    {
      "inputs": [
        {
          "internalType": "uint256",
          "name": "tokenId",
          "type": "uint256"
        }
      ],
      "name": "getApproved",
      "outputs": [
        {
          "internalType": "address",
          "name": "",
          "type": "address"
        }
      ],
      "stateMutability": "view",
      "type": "function"
    },
    {
      "inputs": [
        {
          "internalType": "uint256",
          "name": "_tokenId",
          "type": "uint256"
        }
      ],
      "name": "getEvent",
      "outputs": [
        {
          "components": [
            {
              "internalType": "uint256",
              "name": "idEvento",
              "type": "uint256"
            },
            {
              "internalType": "string",
              "name": "fecha",
              "type": "string"
            },
            {
              "internalType": "string",
              "name": "nombre",
              "type": "string"
            },
            {
              "internalType": "string",
              "name": "descripcion",
              "type": "string"
            }
          ],
          "internalType": "struct NFT.Evento",
          "name": "",
          "type": "tuple"
        }
      ],
      "stateMutability": "view",
      "type": "function"
    },
    {
      "inputs": [
        {
          "internalType": "uint256",
          "name": "_tokenId",
          "type": "uint256"
        }
      ],
      "name": "getOwner",
      "outputs": [
        {
          "internalType": "address",
          "name": "",
          "type": "address"
        }
      ],
      "stateMutability": "view",
      "type": "function"
    },
    {
      "inputs": [
        {
          "internalType": "uint256",
          "name": "id",
          "type": "uint256"
        }
      ],
      "name": "getRaribleV2Royalties",
      "outputs": [
        {
          "components": [
            {
              "internalType": "address payable",
              "name": "account",
              "type": "address"
            },
            {
              "internalType": "uint96",
              "name": "value",
              "type": "uint96"
            }
          ],
          "internalType": "struct LibPart.Part[]",
          "name": "",
          "type": "tuple[]"
        }
      ],
      "stateMutability": "view",
      "type": "function"
    },
    {
      "inputs": [
        {
          "internalType": "address",
          "name": "owner",
          "type": "address"
        },
        {
          "internalType": "address",
          "name": "operator",
          "type": "address"
        }
      ],
      "name": "isApprovedForAll",
      "outputs": [
        {
          "internalType": "bool",
          "name": "",
          "type": "bool"
        }
      ],
      "stateMutability": "view",
      "type": "function"
    },
    {
      "inputs": [
        {
          "internalType": "address",
          "name": "_address",
          "type": "address"
        },
        {
          "internalType": "string",
          "name": "_tokenURI",
          "type": "string"
        },
        {
          "internalType": "string",
          "name": "_descripcion",
          "type": "string"
        },
        {
          "components": [
            {
              "internalType": "uint256",
              "name": "idEvento",
              "type": "uint256"
            },
            {
              "internalType": "string",
              "name": "fecha",
              "type": "string"
            },
            {
              "internalType": "string",
              "name": "nombre",
              "type": "string"
            },
            {
              "internalType": "string",
              "name": "descripcion",
              "type": "string"
            }
          ],
          "internalType": "struct NFT.Evento",
          "name": "_evento",
          "type": "tuple"
        }
      ],
      "name": "mint",
      "outputs": [
        {
          "internalType": "uint256",
          "name": "",
          "type": "uint256"
        }
      ],
      "stateMutability": "nonpayable",
      "type": "function"
    },
    {
      "inputs": [],
      "name": "name",
      "outputs": [
        {
          "internalType": "string",
          "name": "",
          "type": "string"
        }
      ],
      "stateMutability": "view",
      "type": "function"
    },
    {
      "inputs": [],
      "name": "owner",
      "outputs": [
        {
          "internalType": "address",
          "name": "",
          "type": "address"
        }
      ],
      "stateMutability": "view",
      "type": "function"
    },
    {
      "inputs": [
        {
          "internalType": "uint256",
          "name": "tokenId",
          "type": "uint256"
        }
      ],
      "name": "ownerOf",
      "outputs": [
        {
          "internalType": "address",
          "name": "",
          "type": "address"
        }
      ],
      "stateMutability": "view",
      "type": "function"
    },
    {
      "inputs": [],
      "name": "porcentajeReventa",
      "outputs": [
        {
          "internalType": "uint96",
          "name": "",
          "type": "uint96"
        }
      ],
      "stateMutability": "view",
      "type": "function"
    },
    {
      "inputs": [],
      "name": "renounceOwnership",
      "outputs": [],
      "stateMutability": "nonpayable",
      "type": "function"
    },
    {
      "inputs": [
        {
          "internalType": "uint256",
          "name": "",
          "type": "uint256"
        },
        {
          "internalType": "uint256",
          "name": "",
          "type": "uint256"
        }
      ],
      "name": "royalties",
      "outputs": [
        {
          "internalType": "address payable",
          "name": "account",
          "type": "address"
        },
        {
          "internalType": "uint96",
          "name": "value",
          "type": "uint96"
        }
      ],
      "stateMutability": "view",
      "type": "function"
    },
    {
      "inputs": [
        {
          "internalType": "uint256",
          "name": "_tokenId",
          "type": "uint256"
        },
        {
          "internalType": "uint256",
          "name": "_salePrice",
          "type": "uint256"
        }
      ],
      "name": "royaltyInfo",
      "outputs": [
        {
          "internalType": "address",
          "name": "receiver",
          "type": "address"
        },
        {
          "internalType": "uint256",
          "name": "royaltyAmount",
          "type": "uint256"
        }
      ],
      "stateMutability": "view",
      "type": "function"
    },
    {
      "inputs": [
        {
          "internalType": "address",
          "name": "from",
          "type": "address"
        },
        {
          "internalType": "address",
          "name": "to",
          "type": "address"
        },
        {
          "internalType": "uint256",
          "name": "tokenId",
          "type": "uint256"
        }
      ],
      "name": "safeTransferFrom",
      "outputs": [],
      "stateMutability": "nonpayable",
      "type": "function"
    },
    {
      "inputs": [
        {
          "internalType": "address",
          "name": "from",
          "type": "address"
        },
        {
          "internalType": "address",
          "name": "to",
          "type": "address"
        },
        {
          "internalType": "uint256",
          "name": "tokenId",
          "type": "uint256"
        },
        {
          "internalType": "bytes",
          "name": "data",
          "type": "bytes"
        }
      ],
      "name": "safeTransferFrom",
      "outputs": [],
      "stateMutability": "nonpayable",
      "type": "function"
    },
    {
      "inputs": [
        {
          "internalType": "address",
          "name": "operator",
          "type": "address"
        },
        {
          "internalType": "bool",
          "name": "approved",
          "type": "bool"
        }
      ],
      "name": "setApprovalForAll",
      "outputs": [],
      "stateMutability": "nonpayable",
      "type": "function"
    },
    {
      "inputs": [
        {
          "internalType": "bytes4",
          "name": "interfaceId",
          "type": "bytes4"
        }
      ],
      "name": "supportsInterface",
      "outputs": [
        {
          "internalType": "bool",
          "name": "",
          "type": "bool"
        }
      ],
      "stateMutability": "view",
      "type": "function"
    },
    {
      "inputs": [],
      "name": "symbol",
      "outputs": [
        {
          "internalType": "string",
          "name": "",
          "type": "string"
        }
      ],
      "stateMutability": "view",
      "type": "function"
    },
    {
      "inputs": [
        {
          "internalType": "uint256",
          "name": "_tokenId",
          "type": "uint256"
        }
      ],
      "name": "ticketSold",
      "outputs": [
        {
          "internalType": "bool",
          "name": "",
          "type": "bool"
        }
      ],
      "stateMutability": "view",
      "type": "function"
    },
    {
      "inputs": [
        {
          "internalType": "uint256",
          "name": "_tokenId",
          "type": "uint256"
        }
      ],
      "name": "ticketUsed",
      "outputs": [
        {
          "internalType": "bool",
          "name": "",
          "type": "bool"
        }
      ],
      "stateMutability": "view",
      "type": "function"
    },
    {
      "inputs": [],
      "name": "tokenCount",
      "outputs": [
        {
          "internalType": "uint256",
          "name": "",
          "type": "uint256"
        }
      ],
      "stateMutability": "view",
      "type": "function"
    },
    {
      "inputs": [
        {
          "internalType": "uint256",
          "name": "tokenId",
          "type": "uint256"
        }
      ],
      "name": "tokenURI",
      "outputs": [
        {
          "internalType": "string",
          "name": "",
          "type": "string"
        }
      ],
      "stateMutability": "view",
      "type": "function"
    },
    {
      "inputs": [
        {
          "internalType": "address",
          "name": "_from",
          "type": "address"
        },
        {
          "internalType": "address",
          "name": "_to",
          "type": "address"
        },
        {
          "internalType": "uint256",
          "name": "_tokenId",
          "type": "uint256"
        }
      ],
      "name": "transferFrom",
      "outputs": [],
      "stateMutability": "nonpayable",
      "type": "function"
    },
    {
      "inputs": [
        {
          "internalType": "address",
          "name": "newOwner",
          "type": "address"
        }
      ],
      "name": "transferOwnership",
      "outputs": [],
      "stateMutability": "nonpayable",
      "type": "function"
    },
    {
      "inputs": [
        {
          "internalType": "uint256",
          "name": "_tokenId",
          "type": "uint256"
        },
        {
          "internalType": "uint256",
          "name": "_idEvento",
          "type": "uint256"
        }
      ],
      "name": "useTicket",
      "outputs": [
        {
          "internalType": "bool",
          "name": "",
          "type": "bool"
        }
      ],
      "stateMutability": "nonpayable",
      "type": "function"
    }
  ],
  "bytecode": "0x60806040526000600a553480156200001657600080fd5b50604051620053dc380380620053dc83398181016040528101906200003c919062000312565b6040518060400160405280600881526020017f4e465469636b65740000000000000000000000000000000000000000000000008152506040518060400160405280600681526020017f5449434b455400000000000000000000000000000000000000000000000000008152508160009080519060200190620000c09291906200024b565b508060019080519060200190620000d99291906200024b565b505050620000fc620000f06200017d60201b60201c565b6200018560201b60201c565b600160088190555080600b60006101000a8154816bffffffffffffffffffffffff02191690836bffffffffffffffffffffffff16021790555033600b600c6101000a81548173ffffffffffffffffffffffffffffffffffffffff021916908373ffffffffffffffffffffffffffffffffffffffff16021790555050620003d5565b600033905090565b6000600760009054906101000a900473ffffffffffffffffffffffffffffffffffffffff16905081600760006101000a81548173ffffffffffffffffffffffffffffffffffffffff021916908373ffffffffffffffffffffffffffffffffffffffff1602179055508173ffffffffffffffffffffffffffffffffffffffff168173ffffffffffffffffffffffffffffffffffffffff167f8be0079c531659141344cd1fd0a4f28419497f9722a3daafe3b4186f6b6457e060405160405180910390a35050565b828054620002599062000356565b90600052602060002090601f0160209004810192826200027d5760008555620002c9565b82601f106200029857805160ff1916838001178555620002c9565b82800160010185558215620002c9579182015b82811115620002c8578251825591602001919060010190620002ab565b5b509050620002d89190620002dc565b5090565b5b80821115620002f7576000816000905550600101620002dd565b5090565b6000815190506200030c81620003bb565b92915050565b6000602082840312156200032557600080fd5b60006200033584828501620002fb565b91505092915050565b60006bffffffffffffffffffffffff82169050919050565b600060028204905060018216806200036f57607f821691505b602082108114156200038657620003856200038c565b5b50919050565b7f4e487b7100000000000000000000000000000000000000000000000000000000600052602260045260246000fd5b620003c6816200033e565b8114620003d257600080fd5b50565b614ff780620003e56000396000f3fe608060405234801561001057600080fd5b50600436106101da5760003560e01c80637939128111610104578063acdda9ad116100a2578063cad96cca11610071578063cad96cca146105cf578063d7e2e678146105ff578063e985e9c51461062f578063f2fde38b1461065f576101da565b8063acdda9ad14610523578063b88d4fde14610553578063c41a360a1461056f578063c87b56dd1461059f576101da565b80638da5cb5b116100de5780638da5cb5b146104ad57806395d89b41146104cb5780639f181b5e146104e9578063a22cb46514610507576101da565b8063793912811461042e57806382a6c5d21461044c5780638924af741461047c576101da565b80633366a2bc1161017c578063642b5f9b1161014b578063642b5f9b146103945780636d1884e0146103c457806370a08231146103f4578063715018a614610424576101da565b80633366a2bc146102f757806342842e0e1461031557806358ab31f3146103315780636352211e14610364576101da565b8063095ea7b3116101b8578063095ea7b31461025d5780631d4ab5401461027957806323b872dd146102aa5780632a55205a146102c6576101da565b806301ffc9a7146101df57806306fdde031461020f578063081812fc1461022d575b600080fd5b6101f960048036038101906101f49190613969565b61067b565b604051610206919061410f565b60405180910390f35b61021761073a565b604051610224919061412a565b60405180910390f35b610247600480360381019061024291906139bb565b6107cc565b6040516102549190614019565b60405180910390f35b6102776004803603810190610272919061392d565b610812565b005b610293600480360381019061028e91906139bb565b61092a565b6040516102a19291906144d9565b60405180910390f35b6102c460048036038101906102bf919061377c565b6109d6565b005b6102e060048036038101906102db91906139e4565b610c79565b6040516102ee9291906140c4565b60405180910390f35b6102ff610e4f565b60405161030c9190614034565b60405180910390f35b61032f600480360381019061032a919061377c565b610e75565b005b61034b600480360381019061034691906139bb565b610e95565b60405161035b9493929190614509565b60405180910390f35b61037e600480360381019061037991906139bb565b61105d565b60405161038b9190614019565b60405180910390f35b6103ae60048036038101906103a991906139bb565b6110e4565b6040516103bb919061410f565b60405180910390f35b6103de60048036038101906103d991906139bb565b61110e565b6040516103eb919061446c565b60405180910390f35b61040e60048036038101906104099190613717565b6112fb565b60405161041b919061448e565b60405180910390f35b61042c6113b3565b005b6104366113c7565b6040516104439190614563565b60405180910390f35b610466600480360381019061046191906139bb565b6113e5565b604051610473919061410f565b60405180910390f35b610496600480360381019061049191906139e4565b61140f565b6040516104a492919061404f565b60405180910390f35b6104b5611484565b6040516104c29190614019565b60405180910390f35b6104d36114ae565b6040516104e0919061412a565b60405180910390f35b6104f1611540565b6040516104fe919061448e565b60405180910390f35b610521600480360381019061051c9190613846565b611546565b005b61053d60048036038101906105389190613882565b61155c565b60405161054a919061448e565b60405180910390f35b61056d600480360381019061056891906137cb565b6117f5565b005b610589600480360381019061058491906139bb565b611857565b6040516105969190614019565b60405180910390f35b6105b960048036038101906105b491906139bb565b611869565b6040516105c6919061412a565b60405180910390f35b6105e960048036038101906105e491906139bb565b61197c565b6040516105f691906140ed565b60405180910390f35b610619600480360381019061061491906139e4565b611a7e565b604051610626919061410f565b60405180910390f35b61064960048036038101906106449190613740565b611c0b565b604051610656919061410f565b60405180910390f35b61067960048036038101906106749190613717565b611c9f565b005b600063cad96cca60e01b7bffffffffffffffffffffffffffffffffffffffffffffffffffffffff1916827bffffffffffffffffffffffffffffffffffffffffffffffffffffffff191614156106d35760019050610735565b632a55205a60e01b7bffffffffffffffffffffffffffffffffffffffffffffffffffffffff1916827bffffffffffffffffffffffffffffffffffffffffffffffffffffffff191614156107295760019050610735565b61073282611d23565b90505b919050565b606060008054610749906147fd565b80601f0160208091040260200160405190810160405280929190818152602001828054610775906147fd565b80156107c25780601f10610797576101008083540402835291602001916107c2565b820191906000526020600020905b8154815290600101906020018083116107a557829003601f168201915b5050505050905090565b60006107d782611d84565b6004600083815260200190815260200160002060009054906101000a900473ffffffffffffffffffffffffffffffffffffffff169050919050565b600061081d8261105d565b90508073ffffffffffffffffffffffffffffffffffffffff168373ffffffffffffffffffffffffffffffffffffffff16141561088e576040517f08c379a0000000000000000000000000000000000000000000000000000000008152600401610885906143ac565b60405180910390fd5b8073ffffffffffffffffffffffffffffffffffffffff166108ad611dcf565b73ffffffffffffffffffffffffffffffffffffffff1614806108dc57506108db816108d6611dcf565b611c0b565b5b61091b576040517f08c379a0000000000000000000000000000000000000000000000000000000008152600401610912906143ec565b60405180910390fd5b6109258383611dd7565b505050565b600c602052806000526040600020600091509050806000015490806001018054610953906147fd565b80601f016020809104026020016040519081016040528092919081815260200182805461097f906147fd565b80156109cc5780601f106109a1576101008083540402835291602001916109cc565b820191906000526020600020905b8154815290600101906020018083116109af57829003601f168201915b5050505050905082565b6109df81611e90565b610a1e576040517f08c379a0000000000000000000000000000000000000000000000000000000008152600401610a159061428c565b60405180910390fd5b8173ffffffffffffffffffffffffffffffffffffffff16610a3e82611857565b73ffffffffffffffffffffffffffffffffffffffff161415610a95576040517f08c379a0000000000000000000000000000000000000000000000000000000008152600401610a8c906142ec565b60405180910390fd5b8273ffffffffffffffffffffffffffffffffffffffff16610ab582611857565b73ffffffffffffffffffffffffffffffffffffffff1614610b0b576040517f08c379a0000000000000000000000000000000000000000000000000000000008152600401610b029061444c565b60405180910390fd5b600073ffffffffffffffffffffffffffffffffffffffff168373ffffffffffffffffffffffffffffffffffffffff161415610b7b576040517f08c379a0000000000000000000000000000000000000000000000000000000008152600401610b72906143cc565b60405180910390fd5b600073ffffffffffffffffffffffffffffffffffffffff168273ffffffffffffffffffffffffffffffffffffffff161415610beb576040517f08c379a0000000000000000000000000000000000000000000000000000000008152600401610be29061436c565b60405180910390fd5b610bf6838383611ed1565b6001600e600083815260200190815260200160002060006101000a81548160ff02191690831515021790555081600f600083815260200190815260200160002060006101000a81548173ffffffffffffffffffffffffffffffffffffffff021916908373ffffffffffffffffffffffffffffffffffffffff160217905550505050565b600080600060096000868152602001908152602001600020805480602002602001604051908101604052809291908181526020016000905b82821015610d73578382906000526020600020016040518060400160405290816000820160009054906101000a900473ffffffffffffffffffffffffffffffffffffffff1673ffffffffffffffffffffffffffffffffffffffff1673ffffffffffffffffffffffffffffffffffffffff1681526020016000820160149054906101000a90046bffffffffffffffffffffffff166bffffffffffffffffffffffff166bffffffffffffffffffffffff168152505081526020019060010190610cb1565b505050509050600081511115610e3f5780600081518110610dbd577f4e487b7100000000000000000000000000000000000000000000000000000000600052603260045260246000fd5b60200260200101516000015161271082600081518110610e06577f4e487b7100000000000000000000000000000000000000000000000000000000600052603260045260246000fd5b6020026020010151602001516bffffffffffffffffffffffff1686610e2b91906146c3565b610e359190614692565b9250925050610e48565b60008092509250505b9250929050565b600b600c9054906101000a900473ffffffffffffffffffffffffffffffffffffffff1681565b610e90838383604051806020016040528060008152506117f5565b505050565b600d602052806000526040600020600091509050806000015490806001018054610ebe906147fd565b80601f0160208091040260200160405190810160405280929190818152602001828054610eea906147fd565b8015610f375780601f10610f0c57610100808354040283529160200191610f37565b820191906000526020600020905b815481529060010190602001808311610f1a57829003601f168201915b505050505090806002018054610f4c906147fd565b80601f0160208091040260200160405190810160405280929190818152602001828054610f78906147fd565b8015610fc55780601f10610f9a57610100808354040283529160200191610fc5565b820191906000526020600020905b815481529060010190602001808311610fa857829003601f168201915b505050505090806003018054610fda906147fd565b80601f0160208091040260200160405190810160405280929190818152602001828054611006906147fd565b80156110535780601f1061102857610100808354040283529160200191611053565b820191906000526020600020905b81548152906001019060200180831161103657829003601f168201915b5050505050905084565b600080611069836121cb565b9050600073ffffffffffffffffffffffffffffffffffffffff168173ffffffffffffffffffffffffffffffffffffffff1614156110db576040517f08c379a00000000000000000000000000000000000000000000000000000000081526004016110d29061438c565b60405180910390fd5b80915050919050565b60006010600083815260200190815260200160002060009054906101000a900460ff169050919050565b6111166133ff565b600d60008381526020019081526020016000206040518060800160405290816000820154815260200160018201805461114e906147fd565b80601f016020809104026020016040519081016040528092919081815260200182805461117a906147fd565b80156111c75780601f1061119c576101008083540402835291602001916111c7565b820191906000526020600020905b8154815290600101906020018083116111aa57829003601f168201915b505050505081526020016002820180546111e0906147fd565b80601f016020809104026020016040519081016040528092919081815260200182805461120c906147fd565b80156112595780601f1061122e57610100808354040283529160200191611259565b820191906000526020600020905b81548152906001019060200180831161123c57829003601f168201915b50505050508152602001600382018054611272906147fd565b80601f016020809104026020016040519081016040528092919081815260200182805461129e906147fd565b80156112eb5780601f106112c0576101008083540402835291602001916112eb565b820191906000526020600020905b8154815290600101906020018083116112ce57829003601f168201915b5050505050815250509050919050565b60008073ffffffffffffffffffffffffffffffffffffffff168273ffffffffffffffffffffffffffffffffffffffff16141561136c576040517f08c379a0000000000000000000000000000000000000000000000000000000008152600401611363906142ac565b60405180910390fd5b600360008373ffffffffffffffffffffffffffffffffffffffff1673ffffffffffffffffffffffffffffffffffffffff168152602001908152602001600020549050919050565b6113bb612208565b6113c56000612286565b565b600b60009054906101000a90046bffffffffffffffffffffffff1681565b6000600e600083815260200190815260200160002060009054906101000a900460ff169050919050565b6009602052816000526040600020818154811061142b57600080fd5b90600052602060002001600091509150508060000160009054906101000a900473ffffffffffffffffffffffffffffffffffffffff16908060000160149054906101000a90046bffffffffffffffffffffffff16905082565b6000600760009054906101000a900473ffffffffffffffffffffffffffffffffffffffff16905090565b6060600180546114bd906147fd565b80601f01602080910402602001604051908101604052809291908181526020018280546114e9906147fd565b80156115365780601f1061150b57610100808354040283529160200191611536565b820191906000526020600020905b81548152906001019060200180831161151957829003601f168201915b5050505050905090565b600a5481565b611558611551611dcf565b838361234c565b5050565b6000600a600081548092919061157190614860565b9190505550611581600a54611e90565b156115c1576040517f08c379a00000000000000000000000000000000000000000000000000000000081526004016115b89061440c565b60405180910390fd5b6115cd85600a546124b9565b6115d9600a54856124d7565b6115e1613427565b600a5481600001818152505083816020018190525080600c6000600a548152602001908152602001600020600082015181600001556020820151816001019080519060200190611632929190613441565b5090505061163e6133ff565b836000015181600001818152505083602001518160200181905250836040015181604001819052508360600151816060018190525080600d6000600a5481526020019081526020016000206000820151816000015560208201518160010190805190602001906116af929190613441565b5060408201518160020190805190602001906116cc929190613441565b5060608201518160030190805190602001906116e9929190613441565b509050506000600e6000600a54815260200190815260200160002060006101000a81548160ff021916908315150217905550600060106000600a54815260200190815260200160002060006101000a81548160ff02191690831515021790555086600f6000600a54815260200190815260200160002060006101000a81548173ffffffffffffffffffffffffffffffffffffffff021916908373ffffffffffffffffffffffffffffffffffffffff1602179055506117e6600a54600b600c9054906101000a900473ffffffffffffffffffffffffffffffffffffffff16600b60009054906101000a90046bffffffffffffffffffffffff16612582565b600a5492505050949350505050565b611806611800611dcf565b836126fb565b611845576040517f08c379a000000000000000000000000000000000000000000000000000000000815260040161183c9061416c565b60405180910390fd5b61185184848484612790565b50505050565b60006118628261105d565b9050919050565b606061187482611d84565b6000600660008481526020019081526020016000208054611894906147fd565b80601f01602080910402602001604051908101604052809291908181526020018280546118c0906147fd565b801561190d5780601f106118e25761010080835404028352916020019161190d565b820191906000526020600020905b8154815290600101906020018083116118f057829003601f168201915b50505050509050600061191e6127ec565b9050600081511415611934578192505050611977565b600082511115611969578082604051602001611951929190613ff5565b60405160208183030381529060405292505050611977565b61197284612803565b925050505b919050565b606060096000838152602001908152602001600020805480602002602001604051908101604052809291908181526020016000905b82821015611a73578382906000526020600020016040518060400160405290816000820160009054906101000a900473ffffffffffffffffffffffffffffffffffffffff1673ffffffffffffffffffffffffffffffffffffffff1673ffffffffffffffffffffffffffffffffffffffff1681526020016000820160149054906101000a90046bffffffffffffffffffffffff166bffffffffffffffffffffffff166bffffffffffffffffffffffff1681525050815260200190600101906119b1565b505050509050919050565b6000611a8983611e90565b611ac8576040517f08c379a0000000000000000000000000000000000000000000000000000000008152600401611abf9061428c565b60405180910390fd5b611ad1836110e4565b15611b11576040517f08c379a0000000000000000000000000000000000000000000000000000000008152600401611b089061414c565b60405180910390fd5b81611b1b8461110e565b6000015114611b5f576040517f08c379a0000000000000000000000000000000000000000000000000000000008152600401611b569061426c565b60405180910390fd5b3373ffffffffffffffffffffffffffffffffffffffff16611b7f84611857565b73ffffffffffffffffffffffffffffffffffffffff1614611bd5576040517f08c379a0000000000000000000000000000000000000000000000000000000008152600401611bcc9061434c565b60405180910390fd5b60016010600085815260200190815260200160002060006101000a81548160ff0219169083151502179055506001905092915050565b6000600560008473ffffffffffffffffffffffffffffffffffffffff1673ffffffffffffffffffffffffffffffffffffffff16815260200190815260200160002060008373ffffffffffffffffffffffffffffffffffffffff1673ffffffffffffffffffffffffffffffffffffffff16815260200190815260200160002060009054906101000a900460ff16905092915050565b611ca7612208565b600073ffffffffffffffffffffffffffffffffffffffff168173ffffffffffffffffffffffffffffffffffffffff161415611d17576040517f08c379a0000000000000000000000000000000000000000000000000000000008152600401611d0e906141ac565b60405180910390fd5b611d2081612286565b50565b6000634906490660e01b7bffffffffffffffffffffffffffffffffffffffffffffffffffffffff1916827bffffffffffffffffffffffffffffffffffffffffffffffffffffffff19161480611d7d5750611d7c8261286b565b5b9050919050565b611d8d81611e90565b611dcc576040517f08c379a0000000000000000000000000000000000000000000000000000000008152600401611dc39061438c565b60405180910390fd5b50565b600033905090565b816004600083815260200190815260200160002060006101000a81548173ffffffffffffffffffffffffffffffffffffffff021916908373ffffffffffffffffffffffffffffffffffffffff160217905550808273ffffffffffffffffffffffffffffffffffffffff16611e4a8361105d565b73ffffffffffffffffffffffffffffffffffffffff167f8c5be1e5ebec7d5bd14f71427d1e84f3dd0314c0f7b2291e5b200ac8c7c3b92560405160405180910390a45050565b60008073ffffffffffffffffffffffffffffffffffffffff16611eb2836121cb565b73ffffffffffffffffffffffffffffffffffffffff1614159050919050565b8273ffffffffffffffffffffffffffffffffffffffff16611ef18261105d565b73ffffffffffffffffffffffffffffffffffffffff1614611f47576040517f08c379a0000000000000000000000000000000000000000000000000000000008152600401611f3e906141cc565b60405180910390fd5b600073ffffffffffffffffffffffffffffffffffffffff168273ffffffffffffffffffffffffffffffffffffffff161415611fb7576040517f08c379a0000000000000000000000000000000000000000000000000000000008152600401611fae9061420c565b60405180910390fd5b611fc4838383600161294d565b8273ffffffffffffffffffffffffffffffffffffffff16611fe48261105d565b73ffffffffffffffffffffffffffffffffffffffff161461203a576040517f08c379a0000000000000000000000000000000000000000000000000000000008152600401612031906141cc565b60405180910390fd5b6004600082815260200190815260200160002060006101000a81549073ffffffffffffffffffffffffffffffffffffffff02191690556001600360008573ffffffffffffffffffffffffffffffffffffffff1673ffffffffffffffffffffffffffffffffffffffff168152602001908152602001600020600082825403925050819055506001600360008473ffffffffffffffffffffffffffffffffffffffff1673ffffffffffffffffffffffffffffffffffffffff16815260200190815260200160002060008282540192505081905550816002600083815260200190815260200160002060006101000a81548173ffffffffffffffffffffffffffffffffffffffff021916908373ffffffffffffffffffffffffffffffffffffffff160217905550808273ffffffffffffffffffffffffffffffffffffffff168473ffffffffffffffffffffffffffffffffffffffff167fddf252ad1be2c89b69c2b068fc378daa952ba7f163c4a11628f55a4df523b3ef60405160405180910390a46121c68383836001612953565b505050565b60006002600083815260200190815260200160002060009054906101000a900473ffffffffffffffffffffffffffffffffffffffff169050919050565b612210611dcf565b73ffffffffffffffffffffffffffffffffffffffff1661222e611484565b73ffffffffffffffffffffffffffffffffffffffff1614612284576040517f08c379a000000000000000000000000000000000000000000000000000000000815260040161227b9061432c565b60405180910390fd5b565b6000600760009054906101000a900473ffffffffffffffffffffffffffffffffffffffff16905081600760006101000a81548173ffffffffffffffffffffffffffffffffffffffff021916908373ffffffffffffffffffffffffffffffffffffffff1602179055508173ffffffffffffffffffffffffffffffffffffffff168173ffffffffffffffffffffffffffffffffffffffff167f8be0079c531659141344cd1fd0a4f28419497f9722a3daafe3b4186f6b6457e060405160405180910390a35050565b8173ffffffffffffffffffffffffffffffffffffffff168373ffffffffffffffffffffffffffffffffffffffff1614156123bb576040517f08c379a00000000000000000000000000000000000000000000000000000000081526004016123b29061422c565b60405180910390fd5b80600560008573ffffffffffffffffffffffffffffffffffffffff1673ffffffffffffffffffffffffffffffffffffffff16815260200190815260200160002060008473ffffffffffffffffffffffffffffffffffffffff1673ffffffffffffffffffffffffffffffffffffffff16815260200190815260200160002060006101000a81548160ff0219169083151502179055508173ffffffffffffffffffffffffffffffffffffffff168373ffffffffffffffffffffffffffffffffffffffff167f17307eab39ab6107e8899845ad3d59bd9653f200f220920489ca2b5937696c31836040516124ac919061410f565b60405180910390a3505050565b6124d3828260405180602001604052806000815250612959565b5050565b6124e082611e90565b61251f576040517f08c379a0000000000000000000000000000000000000000000000000000000008152600401612516906142cc565b60405180910390fd5b80600660008481526020019081526020016000209080519060200190612546929190613441565b507ff8e1a15aba9398e019f0b49df1a4fde98ee17ae345cb5f6b5e2c27f5033e8ce782604051612576919061448e565b60405180910390a15050565b61258a612208565b6000600167ffffffffffffffff8111156125cd577f4e487b7100000000000000000000000000000000000000000000000000000000600052604160045260246000fd5b60405190808252806020026020018201604052801561260657816020015b6125f36134c7565b8152602001906001900390816125eb5790505b5090508181600081518110612644577f4e487b7100000000000000000000000000000000000000000000000000000000600052603260045260246000fd5b6020026020010151602001906bffffffffffffffffffffffff1690816bffffffffffffffffffffffff168152505082816000815181106126ad577f4e487b7100000000000000000000000000000000000000000000000000000000600052603260045260246000fd5b60200260200101516000019073ffffffffffffffffffffffffffffffffffffffff16908173ffffffffffffffffffffffffffffffffffffffff16815250506126f584826129b4565b50505050565b6000806127078361105d565b90508073ffffffffffffffffffffffffffffffffffffffff168473ffffffffffffffffffffffffffffffffffffffff16148061274957506127488185611c0b565b5b8061278757508373ffffffffffffffffffffffffffffffffffffffff1661276f846107cc565b73ffffffffffffffffffffffffffffffffffffffff16145b91505092915050565b61279b848484611ed1565b6127a784848484612c25565b6127e6576040517f08c379a00000000000000000000000000000000000000000000000000000000081526004016127dd9061418c565b60405180910390fd5b50505050565b606060405180602001604052806000815250905090565b606061280e82611d84565b60006128186127ec565b905060008151116128385760405180602001604052806000815250612863565b8061284284612dbc565b604051602001612853929190613ff5565b6040516020818303038152906040525b915050919050565b60007f80ac58cd000000000000000000000000000000000000000000000000000000007bffffffffffffffffffffffffffffffffffffffffffffffffffffffff1916827bffffffffffffffffffffffffffffffffffffffffffffffffffffffff1916148061293657507f5b5e139f000000000000000000000000000000000000000000000000000000007bffffffffffffffffffffffffffffffffffffffffffffffffffffffff1916827bffffffffffffffffffffffffffffffffffffffffffffffffffffffff1916145b80612946575061294582612ee0565b5b9050919050565b50505050565b50505050565b6129638383612f4a565b6129706000848484612c25565b6129af576040517f08c379a00000000000000000000000000000000000000000000000000000000081526004016129a69061418c565b60405180910390fd5b505050565b60005b8151811015612c1657600073ffffffffffffffffffffffffffffffffffffffff16828281518110612a11577f4e487b7100000000000000000000000000000000000000000000000000000000600052603260045260246000fd5b60200260200101516000015173ffffffffffffffffffffffffffffffffffffffff161415612a74576040517f08c379a0000000000000000000000000000000000000000000000000000000008152600401612a6b9061442c565b60405180910390fd5b6000828281518110612aaf577f4e487b7100000000000000000000000000000000000000000000000000000000600052603260045260246000fd5b6020026020010151602001516bffffffffffffffffffffffff161415612b0a576040517f08c379a0000000000000000000000000000000000000000000000000000000008152600401612b019061424c565b60405180910390fd5b60096000848152602001908152602001600020828281518110612b56577f4e487b7100000000000000000000000000000000000000000000000000000000600052603260045260246000fd5b60200260200101519080600181540180825580915050600190039060005260206000200160009091909190915060008201518160000160006101000a81548173ffffffffffffffffffffffffffffffffffffffff021916908373ffffffffffffffffffffffffffffffffffffffff16021790555060208201518160000160146101000a8154816bffffffffffffffffffffffff02191690836bffffffffffffffffffffffff16021790555050508080612c0e90614860565b9150506129b7565b50612c218282613168565b5050565b6000612c468473ffffffffffffffffffffffffffffffffffffffff166131a5565b15612daf578373ffffffffffffffffffffffffffffffffffffffff1663150b7a02612c6f611dcf565b8786866040518563ffffffff1660e01b8152600401612c919493929190614078565b602060405180830381600087803b158015612cab57600080fd5b505af1925050508015612cdc57506040513d601f19601f82011682018060405250810190612cd99190613992565b60015b612d5f573d8060008114612d0c576040519150601f19603f3d011682016040523d82523d6000602084013e612d11565b606091505b50600081511415612d57576040517f08c379a0000000000000000000000000000000000000000000000000000000008152600401612d4e9061418c565b60405180910390fd5b805181602001fd5b63150b7a0260e01b7bffffffffffffffffffffffffffffffffffffffffffffffffffffffff1916817bffffffffffffffffffffffffffffffffffffffffffffffffffffffff191614915050612db4565b600190505b949350505050565b606060006001612dcb846131c8565b01905060008167ffffffffffffffff811115612e10577f4e487b7100000000000000000000000000000000000000000000000000000000600052604160045260246000fd5b6040519080825280601f01601f191660200182016040528015612e425781602001600182028036833780820191505090505b509050600082602001820190505b600115612ed5578080600190039150507f3031323334353637383961626364656600000000000000000000000000000000600a86061a8153600a8581612ebf577f4e487b7100000000000000000000000000000000000000000000000000000000600052601260045260246000fd5b0494506000851415612ed057612ed5565b612e50565b819350505050919050565b60007f01ffc9a7000000000000000000000000000000000000000000000000000000007bffffffffffffffffffffffffffffffffffffffffffffffffffffffff1916827bffffffffffffffffffffffffffffffffffffffffffffffffffffffff1916149050919050565b600073ffffffffffffffffffffffffffffffffffffffff168273ffffffffffffffffffffffffffffffffffffffff161415612fba576040517f08c379a0000000000000000000000000000000000000000000000000000000008152600401612fb19061430c565b60405180910390fd5b612fc381611e90565b15613003576040517f08c379a0000000000000000000000000000000000000000000000000000000008152600401612ffa906141ec565b60405180910390fd5b61301160008383600161294d565b61301a81611e90565b1561305a576040517f08c379a0000000000000000000000000000000000000000000000000000000008152600401613051906141ec565b60405180910390fd5b6001600360008473ffffffffffffffffffffffffffffffffffffffff1673ffffffffffffffffffffffffffffffffffffffff16815260200190815260200160002060008282540192505081905550816002600083815260200190815260200160002060006101000a81548173ffffffffffffffffffffffffffffffffffffffff021916908373ffffffffffffffffffffffffffffffffffffffff160217905550808273ffffffffffffffffffffffffffffffffffffffff16600073ffffffffffffffffffffffffffffffffffffffff167fddf252ad1be2c89b69c2b068fc378daa952ba7f163c4a11628f55a4df523b3ef60405160405180910390a4613164600083836001612953565b5050565b7f3fa96d7b6bcbfe71ef171666d84db3cf52fa2d1c8afdb1cc8e486177f208b7df82826040516131999291906144a9565b60405180910390a15050565b6000808273ffffffffffffffffffffffffffffffffffffffff163b119050919050565b600080600090507a184f03e93ff9f4daa797ed6e38ed64bf6a1f010000000000000000831061324c577a184f03e93ff9f4daa797ed6e38ed64bf6a1f0100000000000000008381613242577f4e487b7100000000000000000000000000000000000000000000000000000000600052601260045260246000fd5b0492506040810190505b6d04ee2d6d415b85acef810000000083106132af576d04ee2d6d415b85acef810000000083816132a5577f4e487b7100000000000000000000000000000000000000000000000000000000600052601260045260246000fd5b0492506020810190505b662386f26fc10000831061330457662386f26fc1000083816132fa577f4e487b7100000000000000000000000000000000000000000000000000000000600052601260045260246000fd5b0492506010810190505b6305f5e1008310613353576305f5e1008381613349577f4e487b7100000000000000000000000000000000000000000000000000000000600052601260045260246000fd5b0492506008810190505b612710831061339e576127108381613394577f4e487b7100000000000000000000000000000000000000000000000000000000600052601260045260246000fd5b0492506004810190505b606483106133e757606483816133dd577f4e487b7100000000000000000000000000000000000000000000000000000000600052601260045260246000fd5b0492506002810190505b600a83106133f6576001810190505b80915050919050565b6040518060800160405280600081526020016060815260200160608152602001606081525090565b604051806040016040528060008152602001606081525090565b82805461344d906147fd565b90600052602060002090601f01602090048101928261346f57600085556134b6565b82601f1061348857805160ff19168380011785556134b6565b828001600101855582156134b6579182015b828111156134b557825182559160200191906001019061349a565b5b5090506134c39190613505565b5090565b6040518060400160405280600073ffffffffffffffffffffffffffffffffffffffff16815260200160006bffffffffffffffffffffffff1681525090565b5b8082111561351e576000816000905550600101613506565b5090565b6000613535613530846145a3565b61457e565b90508281526020810184848401111561354d57600080fd5b6135588482856147bb565b509392505050565b600061357361356e846145d4565b61457e565b90508281526020810184848401111561358b57600080fd5b6135968482856147bb565b509392505050565b6000813590506135ad81614f65565b92915050565b6000813590506135c281614f7c565b92915050565b6000813590506135d781614f93565b92915050565b6000815190506135ec81614f93565b92915050565b600082601f83011261360357600080fd5b8135613613848260208601613522565b91505092915050565b600082601f83011261362d57600080fd5b813561363d848260208601613560565b91505092915050565b60006080828403121561365857600080fd5b613662608061457e565b9050600061367284828501613702565b600083015250602082013567ffffffffffffffff81111561369257600080fd5b61369e8482850161361c565b602083015250604082013567ffffffffffffffff8111156136be57600080fd5b6136ca8482850161361c565b604083015250606082013567ffffffffffffffff8111156136ea57600080fd5b6136f68482850161361c565b60608301525092915050565b60008135905061371181614faa565b92915050565b60006020828403121561372957600080fd5b60006137378482850161359e565b91505092915050565b6000806040838503121561375357600080fd5b60006137618582860161359e565b92505060206137728582860161359e565b9150509250929050565b60008060006060848603121561379157600080fd5b600061379f8682870161359e565b93505060206137b08682870161359e565b92505060406137c186828701613702565b9150509250925092565b600080600080608085870312156137e157600080fd5b60006137ef8782880161359e565b94505060206138008782880161359e565b935050604061381187828801613702565b925050606085013567ffffffffffffffff81111561382e57600080fd5b61383a878288016135f2565b91505092959194509250565b6000806040838503121561385957600080fd5b60006138678582860161359e565b9250506020613878858286016135b3565b9150509250929050565b6000806000806080858703121561389857600080fd5b60006138a68782880161359e565b945050602085013567ffffffffffffffff8111156138c357600080fd5b6138cf8782880161361c565b935050604085013567ffffffffffffffff8111156138ec57600080fd5b6138f88782880161361c565b925050606085013567ffffffffffffffff81111561391557600080fd5b61392187828801613646565b91505092959194509250565b6000806040838503121561394057600080fd5b600061394e8582860161359e565b925050602061395f85828601613702565b9150509250929050565b60006020828403121561397b57600080fd5b6000613989848285016135c8565b91505092915050565b6000602082840312156139a457600080fd5b60006139b2848285016135dd565b91505092915050565b6000602082840312156139cd57600080fd5b60006139db84828501613702565b91505092915050565b600080604083850312156139f757600080fd5b6000613a0585828601613702565b9250506020613a1685828601613702565b9150509250929050565b6000613a2c8383613f8a565b60408301905092915050565b613a418161472f565b82525050565b613a508161472f565b82525050565b613a5f8161471d565b82525050565b6000613a7082614615565b613a7a8185614643565b9350613a8583614605565b8060005b83811015613ab6578151613a9d8882613a20565b9750613aa883614636565b925050600181019050613a89565b5085935050505092915050565b613acc81614741565b82525050565b6000613add82614620565b613ae78185614654565b9350613af78185602086016147ca565b613b0081614965565b840191505092915050565b6000613b168261462b565b613b208185614665565b9350613b308185602086016147ca565b613b3981614965565b840191505092915050565b6000613b4f8261462b565b613b598185614676565b9350613b698185602086016147ca565b613b7281614965565b840191505092915050565b6000613b888261462b565b613b928185614687565b9350613ba28185602086016147ca565b80840191505092915050565b6000613bbb602483614676565b9150613bc682614976565b604082019050919050565b6000613bde602d83614676565b9150613be9826149c5565b604082019050919050565b6000613c01603283614676565b9150613c0c82614a14565b604082019050919050565b6000613c24602683614676565b9150613c2f82614a63565b604082019050919050565b6000613c47602583614676565b9150613c5282614ab2565b604082019050919050565b6000613c6a601c83614676565b9150613c7582614b01565b602082019050919050565b6000613c8d602483614676565b9150613c9882614b2a565b604082019050919050565b6000613cb0601983614676565b9150613cbb82614b79565b602082019050919050565b6000613cd3602083614676565b9150613cde82614ba2565b602082019050919050565b6000613cf6602383614676565b9150613d0182614bcb565b604082019050919050565b6000613d19601d83614676565b9150613d2482614c1a565b602082019050919050565b6000613d3c602983614676565b9150613d4782614c43565b604082019050919050565b6000613d5f602e83614676565b9150613d6a82614c92565b604082019050919050565b6000613d82603583614676565b9150613d8d82614ce1565b604082019050919050565b6000613da5602083614676565b9150613db082614d30565b602082019050919050565b6000613dc8602083614676565b9150613dd382614d59565b602082019050919050565b6000613deb601c83614676565b9150613df682614d82565b602082019050919050565b6000613e0e601a83614676565b9150613e1982614dab565b602082019050919050565b6000613e31601883614676565b9150613e3c82614dd4565b602082019050919050565b6000613e54602183614676565b9150613e5f82614dfd565b604082019050919050565b6000613e77601c83614676565b9150613e8282614e4c565b602082019050919050565b6000613e9a603d83614676565b9150613ea582614e75565b604082019050919050565b6000613ebd601d83614676565b9150613ec882614ec4565b602082019050919050565b6000613ee0601b83614676565b9150613eeb82614eed565b602082019050919050565b6000613f03603383614676565b9150613f0e82614f16565b604082019050919050565b6000608083016000830151613f316000860182613fb9565b5060208301518482036020860152613f498282613b0b565b91505060408301518482036040860152613f638282613b0b565b91505060608301518482036060860152613f7d8282613b0b565b9150508091505092915050565b604082016000820151613fa06000850182613a38565b506020820151613fb36020850182613fd7565b50505050565b613fc281614799565b82525050565b613fd181614799565b82525050565b613fe0816147a3565b82525050565b613fef816147a3565b82525050565b60006140018285613b7d565b915061400d8284613b7d565b91508190509392505050565b600060208201905061402e6000830184613a56565b92915050565b60006020820190506140496000830184613a47565b92915050565b60006040820190506140646000830185613a47565b6140716020830184613fe6565b9392505050565b600060808201905061408d6000830187613a56565b61409a6020830186613a56565b6140a76040830185613fc8565b81810360608301526140b98184613ad2565b905095945050505050565b60006040820190506140d96000830185613a56565b6140e66020830184613fc8565b9392505050565b600060208201905081810360008301526141078184613a65565b905092915050565b60006020820190506141246000830184613ac3565b92915050565b600060208201905081810360008301526141448184613b44565b905092915050565b6000602082019050818103600083015261416581613bae565b9050919050565b6000602082019050818103600083015261418581613bd1565b9050919050565b600060208201905081810360008301526141a581613bf4565b9050919050565b600060208201905081810360008301526141c581613c17565b9050919050565b600060208201905081810360008301526141e581613c3a565b9050919050565b6000602082019050818103600083015261420581613c5d565b9050919050565b6000602082019050818103600083015261422581613c80565b9050919050565b6000602082019050818103600083015261424581613ca3565b9050919050565b6000602082019050818103600083015261426581613cc6565b9050919050565b6000602082019050818103600083015261428581613ce9565b9050919050565b600060208201905081810360008301526142a581613d0c565b9050919050565b600060208201905081810360008301526142c581613d2f565b9050919050565b600060208201905081810360008301526142e581613d52565b9050919050565b6000602082019050818103600083015261430581613d75565b9050919050565b6000602082019050818103600083015261432581613d98565b9050919050565b6000602082019050818103600083015261434581613dbb565b9050919050565b6000602082019050818103600083015261436581613dde565b9050919050565b6000602082019050818103600083015261438581613e01565b9050919050565b600060208201905081810360008301526143a581613e24565b9050919050565b600060208201905081810360008301526143c581613e47565b9050919050565b600060208201905081810360008301526143e581613e6a565b9050919050565b6000602082019050818103600083015261440581613e8d565b9050919050565b6000602082019050818103600083015261442581613eb0565b9050919050565b6000602082019050818103600083015261444581613ed3565b9050919050565b6000602082019050818103600083015261446581613ef6565b9050919050565b600060208201905081810360008301526144868184613f19565b905092915050565b60006020820190506144a36000830184613fc8565b92915050565b60006040820190506144be6000830185613fc8565b81810360208301526144d08184613a65565b90509392505050565b60006040820190506144ee6000830185613fc8565b81810360208301526145008184613b44565b90509392505050565b600060808201905061451e6000830187613fc8565b81810360208301526145308186613b44565b905081810360408301526145448185613b44565b905081810360608301526145588184613b44565b905095945050505050565b60006020820190506145786000830184613fe6565b92915050565b6000614588614599565b9050614594828261482f565b919050565b6000604051905090565b600067ffffffffffffffff8211156145be576145bd614936565b5b6145c782614965565b9050602081019050919050565b600067ffffffffffffffff8211156145ef576145ee614936565b5b6145f882614965565b9050602081019050919050565b6000819050602082019050919050565b600081519050919050565b600081519050919050565b600081519050919050565b6000602082019050919050565b600082825260208201905092915050565b600082825260208201905092915050565b600082825260208201905092915050565b600082825260208201905092915050565b600081905092915050565b600061469d82614799565b91506146a883614799565b9250826146b8576146b76148d8565b5b828204905092915050565b60006146ce82614799565b91506146d983614799565b9250817fffffffffffffffffffffffffffffffffffffffffffffffffffffffffffffffff0483118215151615614712576147116148a9565b5b828202905092915050565b600061472882614779565b9050919050565b600061473a82614779565b9050919050565b60008115159050919050565b60007fffffffff0000000000000000000000000000000000000000000000000000000082169050919050565b600073ffffffffffffffffffffffffffffffffffffffff82169050919050565b6000819050919050565b60006bffffffffffffffffffffffff82169050919050565b82818337600083830152505050565b60005b838110156147e85780820151818401526020810190506147cd565b838111156147f7576000848401525b50505050565b6000600282049050600182168061481557607f821691505b6020821081141561482957614828614907565b5b50919050565b61483882614965565b810181811067ffffffffffffffff8211171561485757614856614936565b5b80604052505050565b600061486b82614799565b91507fffffffffffffffffffffffffffffffffffffffffffffffffffffffffffffffff82141561489e5761489d6148a9565b5b600182019050919050565b7f4e487b7100000000000000000000000000000000000000000000000000000000600052601160045260246000fd5b7f4e487b7100000000000000000000000000000000000000000000000000000000600052601260045260246000fd5b7f4e487b7100000000000000000000000000000000000000000000000000000000600052602260045260246000fd5b7f4e487b7100000000000000000000000000000000000000000000000000000000600052604160045260246000fd5b6000601f19601f8301169050919050565b7f4552433732313a205469636b65742068617320616c7265616479206265656e2060008201527f7573656400000000000000000000000000000000000000000000000000000000602082015250565b7f4552433732313a2063616c6c6572206973206e6f7420746f6b656e206f776e6560008201527f72206f7220617070726f76656400000000000000000000000000000000000000602082015250565b7f4552433732313a207472616e7366657220746f206e6f6e20455243373231526560008201527f63656976657220696d706c656d656e7465720000000000000000000000000000602082015250565b7f4f776e61626c653a206e6577206f776e657220697320746865207a65726f206160008201527f6464726573730000000000000000000000000000000000000000000000000000602082015250565b7f4552433732313a207472616e736665722066726f6d20696e636f72726563742060008201527f6f776e6572000000000000000000000000000000000000000000000000000000602082015250565b7f4552433732313a20746f6b656e20616c7265616479206d696e74656400000000600082015250565b7f4552433732313a207472616e7366657220746f20746865207a65726f2061646460008201527f7265737300000000000000000000000000000000000000000000000000000000602082015250565b7f4552433732313a20617070726f766520746f2063616c6c657200000000000000600082015250565b7f526f79616c74792076616c75652073686f756c6420626520706f736974697665600082015250565b7f4552433732313a204e6f742061207469636b65742066726f6d2074686520657660008201527f656e740000000000000000000000000000000000000000000000000000000000602082015250565b7f4552433732313a205469636b657420646f6573206e6f74206578697374000000600082015250565b7f4552433732313a2061646472657373207a65726f206973206e6f74206120766160008201527f6c6964206f776e65720000000000000000000000000000000000000000000000602082015250565b7f45524337323155524953746f726167653a2055524920736574206f66206e6f6e60008201527f6578697374656e7420746f6b656e000000000000000000000000000000000000602082015250565b7f4552433732313a20546f206164647265737320697320616c726561647920746860008201527f65206f776e6572206f6620746865207469636b65740000000000000000000000602082015250565b7f4552433732313a206d696e7420746f20746865207a65726f2061646472657373600082015250565b7f4f776e61626c653a2063616c6c6572206973206e6f7420746865206f776e6572600082015250565b7f4552433732313a204e6f7420746865207469636b6574206f776e657200000000600082015250565b7f4552433732313a20496e76616c696420746f2061646472657373000000000000600082015250565b7f4552433732313a20696e76616c696420746f6b656e2049440000000000000000600082015250565b7f4552433732313a20617070726f76616c20746f2063757272656e74206f776e6560008201527f7200000000000000000000000000000000000000000000000000000000000000602082015250565b7f4552433732313a20496e76616c69642066726f6d206164647265737300000000600082015250565b7f4552433732313a20617070726f76652063616c6c6572206973206e6f7420746f60008201527f6b656e206f776e6572206f7220617070726f76656420666f7220616c6c000000602082015250565b7f4552433732313a205469636b657420616c726561647920657869737473000000600082015250565b7f526563697069656e742073686f756c642062652070726573656e740000000000600082015250565b7f4552433732313a2046726f6d2061646472657373206973206e6f74207468652060008201527f6f776e6572206f6620746865207469636b657400000000000000000000000000602082015250565b614f6e8161471d565b8114614f7957600080fd5b50565b614f8581614741565b8114614f9057600080fd5b50565b614f9c8161474d565b8114614fa757600080fd5b50565b614fb381614799565b8114614fbe57600080fd5b5056fea264697066735822122096bbfec1e01d83b1c6ad71281dffe2f2508271ce1d32b5de9df19973c7152d8f64736f6c63430008040033",
  "linkReferences": {},
  "deployedLinkReferences": {}
}