{
  "_format": "hh-sol-artifact-1",
  "contractName": "NFT",
  "sourceName": "contracts/NFT.sol",
  "abi": [
    {
      "inputs": [
        {
          "internalType": "uint96",
          "name": "_porcentajeReventa",
          "type": "uint96"
        }
      ],
      "stateMutability": "nonpayable",
      "type": "constructor"
    },
    {
      "anonymous": false,
      "inputs": [
        {
          "indexed": true,
          "internalType": "address",
          "name": "owner",
          "type": "address"
        },
        {
          "indexed": true,
          "internalType": "address",
          "name": "approved",
          "type": "address"
        },
        {
          "indexed": true,
          "internalType": "uint256",
          "name": "tokenId",
          "type": "uint256"
        }
      ],
      "name": "Approval",
      "type": "event"
    },
    {
      "anonymous": false,
      "inputs": [
        {
          "indexed": true,
          "internalType": "address",
          "name": "owner",
          "type": "address"
        },
        {
          "indexed": true,
          "internalType": "address",
          "name": "operator",
          "type": "address"
        },
        {
          "indexed": false,
          "internalType": "bool",
          "name": "approved",
          "type": "bool"
        }
      ],
      "name": "ApprovalForAll",
      "type": "event"
    },
    {
      "anonymous": false,
      "inputs": [
        {
          "indexed": false,
          "internalType": "uint256",
          "name": "_fromTokenId",
          "type": "uint256"
        },
        {
          "indexed": false,
          "internalType": "uint256",
          "name": "_toTokenId",
          "type": "uint256"
        }
      ],
      "name": "BatchMetadataUpdate",
      "type": "event"
    },
    {
      "anonymous": false,
      "inputs": [
        {
          "indexed": false,
          "internalType": "uint256",
          "name": "_tokenId",
          "type": "uint256"
        }
      ],
      "name": "MetadataUpdate",
      "type": "event"
    },
    {
      "anonymous": false,
      "inputs": [
        {
          "indexed": true,
          "internalType": "address",
          "name": "previousOwner",
          "type": "address"
        },
        {
          "indexed": true,
          "internalType": "address",
          "name": "newOwner",
          "type": "address"
        }
      ],
      "name": "OwnershipTransferred",
      "type": "event"
    },
    {
      "anonymous": false,
      "inputs": [
        {
          "indexed": false,
          "internalType": "uint256",
          "name": "tokenId",
          "type": "uint256"
        },
        {
          "components": [
            {
              "internalType": "address payable",
              "name": "account",
              "type": "address"
            },
            {
              "internalType": "uint96",
              "name": "value",
              "type": "uint96"
            }
          ],
          "indexed": false,
          "internalType": "struct LibPart.Part[]",
          "name": "royalties",
          "type": "tuple[]"
        }
      ],
      "name": "RoyaltiesSet",
      "type": "event"
    },
    {
      "anonymous": false,
      "inputs": [
        {
          "indexed": true,
          "internalType": "address",
          "name": "from",
          "type": "address"
        },
        {
          "indexed": true,
          "internalType": "address",
          "name": "to",
          "type": "address"
        },
        {
          "indexed": true,
          "internalType": "uint256",
          "name": "tokenId",
          "type": "uint256"
        }
      ],
      "name": "Transfer",
      "type": "event"
    },
    {
      "inputs": [
        {
          "internalType": "address",
          "name": "to",
          "type": "address"
        },
        {
          "internalType": "uint256",
          "name": "tokenId",
          "type": "uint256"
        }
      ],
      "name": "approve",
      "outputs": [],
      "stateMutability": "nonpayable",
      "type": "function"
    },
    {
      "inputs": [
        {
          "internalType": "address",
          "name": "owner",
          "type": "address"
        }
      ],
      "name": "balanceOf",
      "outputs": [
        {
          "internalType": "uint256",
          "name": "",
          "type": "uint256"
        }
      ],
      "stateMutability": "view",
      "type": "function"
    },
    {
      "inputs": [],
      "name": "cuentaMaestra",
      "outputs": [
        {
          "internalType": "address payable",
          "name": "",
          "type": "address"
        }
      ],
      "stateMutability": "view",
      "type": "function"
    },
    {
      "inputs": [
        {
          "internalType": "uint256",
          "name": "",
          "type": "uint256"
        }
      ],
      "name": "entradas",
      "outputs": [
        {
          "internalType": "uint256",
          "name": "idEntrada",
          "type": "uint256"
        },
        {
          "internalType": "string",
          "name": "descripcion",
          "type": "string"
        }
      ],
      "stateMutability": "view",
      "type": "function"
    },
    {
      "inputs": [
        {
          "internalType": "uint256",
          "name": "",
          "type": "uint256"
        }
      ],
      "name": "entradasEventos",
      "outputs": [
        {
          "internalType": "uint256",
          "name": "idEvento",
          "type": "uint256"
        },
        {
          "internalType": "string",
          "name": "fecha",
          "type": "string"
        },
        {
          "internalType": "string",
          "name": "nombre",
          "type": "string"
        },
        {
          "internalType": "string",
          "name": "descripcion",
          "type": "string"
        }
      ],
      "stateMutability": "view",
      "type": "function"
    },
    {
      "inputs": [
        {
          "internalType": "uint256",
          "name": "tokenId",
          "type": "uint256"
        }
      ],
      "name": "getApproved",
      "outputs": [
        {
          "internalType": "address",
          "name": "",
          "type": "address"
        }
      ],
      "stateMutability": "view",
      "type": "function"
    },
    {
      "inputs": [
        {
          "internalType": "uint256",
          "name": "_tokenId",
          "type": "uint256"
        }
      ],
      "name": "getEvent",
      "outputs": [
        {
          "components": [
            {
              "internalType": "uint256",
              "name": "idEvento",
              "type": "uint256"
            },
            {
              "internalType": "string",
              "name": "fecha",
              "type": "string"
            },
            {
              "internalType": "string",
              "name": "nombre",
              "type": "string"
            },
            {
              "internalType": "string",
              "name": "descripcion",
              "type": "string"
            }
          ],
          "internalType": "struct NFT.Evento",
          "name": "",
          "type": "tuple"
        }
      ],
      "stateMutability": "view",
      "type": "function"
    },
    {
      "inputs": [
        {
          "internalType": "uint256",
          "name": "_tokenId",
          "type": "uint256"
        }
      ],
      "name": "getOwner",
      "outputs": [
        {
          "internalType": "address",
          "name": "",
          "type": "address"
        }
      ],
      "stateMutability": "view",
      "type": "function"
    },
    {
      "inputs": [
        {
          "internalType": "uint256",
          "name": "id",
          "type": "uint256"
        }
      ],
      "name": "getRaribleV2Royalties",
      "outputs": [
        {
          "components": [
            {
              "internalType": "address payable",
              "name": "account",
              "type": "address"
            },
            {
              "internalType": "uint96",
              "name": "value",
              "type": "uint96"
            }
          ],
          "internalType": "struct LibPart.Part[]",
          "name": "",
          "type": "tuple[]"
        }
      ],
      "stateMutability": "view",
      "type": "function"
    },
    {
      "inputs": [
        {
          "internalType": "address",
          "name": "owner",
          "type": "address"
        },
        {
          "internalType": "address",
          "name": "operator",
          "type": "address"
        }
      ],
      "name": "isApprovedForAll",
      "outputs": [
        {
          "internalType": "bool",
          "name": "",
          "type": "bool"
        }
      ],
      "stateMutability": "view",
      "type": "function"
    },
    {
      "inputs": [
        {
          "internalType": "address",
          "name": "_address",
          "type": "address"
        },
        {
          "internalType": "string",
          "name": "_tokenURI",
          "type": "string"
        },
        {
          "internalType": "string",
          "name": "_descripcion",
          "type": "string"
        },
        {
          "components": [
            {
              "internalType": "uint256",
              "name": "idEvento",
              "type": "uint256"
            },
            {
              "internalType": "string",
              "name": "fecha",
              "type": "string"
            },
            {
              "internalType": "string",
              "name": "nombre",
              "type": "string"
            },
            {
              "internalType": "string",
              "name": "descripcion",
              "type": "string"
            }
          ],
          "internalType": "struct NFT.Evento",
          "name": "_evento",
          "type": "tuple"
        }
      ],
      "name": "mint",
      "outputs": [
        {
          "internalType": "uint256",
          "name": "",
          "type": "uint256"
        }
      ],
      "stateMutability": "nonpayable",
      "type": "function"
    },
    {
      "inputs": [],
      "name": "name",
      "outputs": [
        {
          "internalType": "string",
          "name": "",
          "type": "string"
        }
      ],
      "stateMutability": "view",
      "type": "function"
    },
    {
      "inputs": [],
      "name": "owner",
      "outputs": [
        {
          "internalType": "address",
          "name": "",
          "type": "address"
        }
      ],
      "stateMutability": "view",
      "type": "function"
    },
    {
      "inputs": [
        {
          "internalType": "uint256",
          "name": "tokenId",
          "type": "uint256"
        }
      ],
      "name": "ownerOf",
      "outputs": [
        {
          "internalType": "address",
          "name": "",
          "type": "address"
        }
      ],
      "stateMutability": "view",
      "type": "function"
    },
    {
      "inputs": [],
      "name": "porcentajeReventa",
      "outputs": [
        {
          "internalType": "uint96",
          "name": "",
          "type": "uint96"
        }
      ],
      "stateMutability": "view",
      "type": "function"
    },
    {
      "inputs": [],
      "name": "renounceOwnership",
      "outputs": [],
      "stateMutability": "nonpayable",
      "type": "function"
    },
    {
      "inputs": [
        {
          "internalType": "uint256",
          "name": "",
          "type": "uint256"
        },
        {
          "internalType": "uint256",
          "name": "",
          "type": "uint256"
        }
      ],
      "name": "royalties",
      "outputs": [
        {
          "internalType": "address payable",
          "name": "account",
          "type": "address"
        },
        {
          "internalType": "uint96",
          "name": "value",
          "type": "uint96"
        }
      ],
      "stateMutability": "view",
      "type": "function"
    },
    {
      "inputs": [
        {
          "internalType": "uint256",
          "name": "_tokenId",
          "type": "uint256"
        },
        {
          "internalType": "uint256",
          "name": "_salePrice",
          "type": "uint256"
        }
      ],
      "name": "royaltyInfo",
      "outputs": [
        {
          "internalType": "address",
          "name": "receiver",
          "type": "address"
        },
        {
          "internalType": "uint256",
          "name": "royaltyAmount",
          "type": "uint256"
        }
      ],
      "stateMutability": "view",
      "type": "function"
    },
    {
      "inputs": [
        {
          "internalType": "address",
          "name": "from",
          "type": "address"
        },
        {
          "internalType": "address",
          "name": "to",
          "type": "address"
        },
        {
          "internalType": "uint256",
          "name": "tokenId",
          "type": "uint256"
        }
      ],
      "name": "safeTransferFrom",
      "outputs": [],
      "stateMutability": "nonpayable",
      "type": "function"
    },
    {
      "inputs": [
        {
          "internalType": "address",
          "name": "from",
          "type": "address"
        },
        {
          "internalType": "address",
          "name": "to",
          "type": "address"
        },
        {
          "internalType": "uint256",
          "name": "tokenId",
          "type": "uint256"
        },
        {
          "internalType": "bytes",
          "name": "data",
          "type": "bytes"
        }
      ],
      "name": "safeTransferFrom",
      "outputs": [],
      "stateMutability": "nonpayable",
      "type": "function"
    },
    {
      "inputs": [
        {
          "internalType": "address",
          "name": "operator",
          "type": "address"
        },
        {
          "internalType": "bool",
          "name": "approved",
          "type": "bool"
        }
      ],
      "name": "setApprovalForAll",
      "outputs": [],
      "stateMutability": "nonpayable",
      "type": "function"
    },
    {
      "inputs": [
        {
          "internalType": "bytes4",
          "name": "interfaceId",
          "type": "bytes4"
        }
      ],
      "name": "supportsInterface",
      "outputs": [
        {
          "internalType": "bool",
          "name": "",
          "type": "bool"
        }
      ],
      "stateMutability": "view",
      "type": "function"
    },
    {
      "inputs": [],
      "name": "symbol",
      "outputs": [
        {
          "internalType": "string",
          "name": "",
          "type": "string"
        }
      ],
      "stateMutability": "view",
      "type": "function"
    },
    {
      "inputs": [
        {
          "internalType": "uint256",
          "name": "_tokenId",
          "type": "uint256"
        }
      ],
      "name": "ticketSold",
      "outputs": [
        {
          "internalType": "bool",
          "name": "",
          "type": "bool"
        }
      ],
      "stateMutability": "view",
      "type": "function"
    },
    {
      "inputs": [
        {
          "internalType": "uint256",
          "name": "_tokenId",
          "type": "uint256"
        }
      ],
      "name": "ticketUsed",
      "outputs": [
        {
          "internalType": "bool",
          "name": "",
          "type": "bool"
        }
      ],
      "stateMutability": "view",
      "type": "function"
    },
    {
      "inputs": [],
      "name": "tokenCount",
      "outputs": [
        {
          "internalType": "uint256",
          "name": "",
          "type": "uint256"
        }
      ],
      "stateMutability": "view",
      "type": "function"
    },
    {
      "inputs": [
        {
          "internalType": "uint256",
          "name": "tokenId",
          "type": "uint256"
        }
      ],
      "name": "tokenURI",
      "outputs": [
        {
          "internalType": "string",
          "name": "",
          "type": "string"
        }
      ],
      "stateMutability": "view",
      "type": "function"
    },
    {
      "inputs": [
        {
          "internalType": "address",
          "name": "_from",
          "type": "address"
        },
        {
          "internalType": "address",
          "name": "_to",
          "type": "address"
        },
        {
          "internalType": "uint256",
          "name": "_tokenId",
          "type": "uint256"
        }
      ],
      "name": "transferFrom",
      "outputs": [],
      "stateMutability": "nonpayable",
      "type": "function"
    },
    {
      "inputs": [
        {
          "internalType": "address",
          "name": "newOwner",
          "type": "address"
        }
      ],
      "name": "transferOwnership",
      "outputs": [],
      "stateMutability": "nonpayable",
      "type": "function"
    },
    {
      "inputs": [
        {
          "internalType": "uint256",
          "name": "_tokenId",
          "type": "uint256"
        },
        {
          "internalType": "uint256",
          "name": "_idEvento",
          "type": "uint256"
        }
      ],
      "name": "useTicket",
      "outputs": [
        {
          "internalType": "bool",
          "name": "",
          "type": "bool"
        }
      ],
      "stateMutability": "nonpayable",
      "type": "function"
    }
  ],
  "bytecode": "0x60806040526000600a553480156200001657600080fd5b50604051620054ba380380620054ba83398181016040528101906200003c919062000312565b6040518060400160405280600881526020017f4e465469636b65740000000000000000000000000000000000000000000000008152506040518060400160405280600681526020017f5449434b455400000000000000000000000000000000000000000000000000008152508160009080519060200190620000c09291906200024b565b508060019080519060200190620000d99291906200024b565b505050620000fc620000f06200017d60201b60201c565b6200018560201b60201c565b600160088190555080600b60006101000a8154816bffffffffffffffffffffffff02191690836bffffffffffffffffffffffff16021790555033600b600c6101000a81548173ffffffffffffffffffffffffffffffffffffffff021916908373ffffffffffffffffffffffffffffffffffffffff16021790555050620003d5565b600033905090565b6000600760009054906101000a900473ffffffffffffffffffffffffffffffffffffffff16905081600760006101000a81548173ffffffffffffffffffffffffffffffffffffffff021916908373ffffffffffffffffffffffffffffffffffffffff1602179055508173ffffffffffffffffffffffffffffffffffffffff168173ffffffffffffffffffffffffffffffffffffffff167f8be0079c531659141344cd1fd0a4f28419497f9722a3daafe3b4186f6b6457e060405160405180910390a35050565b828054620002599062000356565b90600052602060002090601f0160209004810192826200027d5760008555620002c9565b82601f106200029857805160ff1916838001178555620002c9565b82800160010185558215620002c9579182015b82811115620002c8578251825591602001919060010190620002ab565b5b509050620002d89190620002dc565b5090565b5b80821115620002f7576000816000905550600101620002dd565b5090565b6000815190506200030c81620003bb565b92915050565b6000602082840312156200032557600080fd5b60006200033584828501620002fb565b91505092915050565b60006bffffffffffffffffffffffff82169050919050565b600060028204905060018216806200036f57607f821691505b602082108114156200038657620003856200038c565b5b50919050565b7f4e487b7100000000000000000000000000000000000000000000000000000000600052602260045260246000fd5b620003c6816200033e565b8114620003d257600080fd5b50565b6150d580620003e56000396000f3fe608060405234801561001057600080fd5b50600436106101da5760003560e01c80637939128111610104578063acdda9ad116100a2578063cad96cca11610071578063cad96cca146105cf578063d7e2e678146105ff578063e985e9c51461062f578063f2fde38b1461065f576101da565b8063acdda9ad14610523578063b88d4fde14610553578063c41a360a1461056f578063c87b56dd1461059f576101da565b80638da5cb5b116100de5780638da5cb5b146104ad57806395d89b41146104cb5780639f181b5e146104e9578063a22cb46514610507576101da565b8063793912811461042e57806382a6c5d21461044c5780638924af741461047c576101da565b80633366a2bc1161017c578063642b5f9b1161014b578063642b5f9b146103945780636d1884e0146103c457806370a08231146103f4578063715018a614610424576101da565b80633366a2bc146102f757806342842e0e1461031557806358ab31f3146103315780636352211e14610364576101da565b8063095ea7b3116101b8578063095ea7b31461025d5780631d4ab5401461027957806323b872dd146102aa5780632a55205a146102c6576101da565b806301ffc9a7146101df57806306fdde031461020f578063081812fc1461022d575b600080fd5b6101f960048036038101906101f491906139db565b61067b565b60405161020691906141a4565b60405180910390f35b61021761073a565b60405161022491906141bf565b60405180910390f35b61024760048036038101906102429190613a2d565b6107cc565b60405161025491906140ae565b60405180910390f35b6102776004803603810190610272919061399f565b610812565b005b610293600480360381019061028e9190613a2d565b61092a565b6040516102a192919061458e565b60405180910390f35b6102c460048036038101906102bf91906137ee565b6109d6565b005b6102e060048036038101906102db9190613a56565b610c79565b6040516102ee929190614159565b60405180910390f35b6102ff610e4f565b60405161030c91906140c9565b60405180910390f35b61032f600480360381019061032a91906137ee565b610e75565b005b61034b60048036038101906103469190613a2d565b610e95565b60405161035b94939291906145be565b60405180910390f35b61037e60048036038101906103799190613a2d565b61105d565b60405161038b91906140ae565b60405180910390f35b6103ae60048036038101906103a99190613a2d565b6110e4565b6040516103bb91906141a4565b60405180910390f35b6103de60048036038101906103d99190613a2d565b61110e565b6040516103eb9190614521565b60405180910390f35b61040e60048036038101906104099190613789565b6112fb565b60405161041b9190614543565b60405180910390f35b61042c6113b3565b005b6104366113c7565b6040516104439190614618565b60405180910390f35b61046660048036038101906104619190613a2d565b6113e5565b60405161047391906141a4565b60405180910390f35b61049660048036038101906104919190613a56565b61140f565b6040516104a49291906140e4565b60405180910390f35b6104b5611484565b6040516104c291906140ae565b60405180910390f35b6104d36114ae565b6040516104e091906141bf565b60405180910390f35b6104f1611540565b6040516104fe9190614543565b60405180910390f35b610521600480360381019061051c91906138b8565b611546565b005b61053d600480360381019061053891906138f4565b61155c565b60405161054a9190614543565b60405180910390f35b61056d6004803603810190610568919061383d565b61180d565b005b61058960048036038101906105849190613a2d565b61186f565b60405161059691906140ae565b60405180910390f35b6105b960048036038101906105b49190613a2d565b611881565b6040516105c691906141bf565b60405180910390f35b6105e960048036038101906105e49190613a2d565b611994565b6040516105f69190614182565b60405180910390f35b61061960048036038101906106149190613a56565b611a96565b60405161062691906141a4565b60405180910390f35b610649600480360381019061064491906137b2565b611c23565b60405161065691906141a4565b60405180910390f35b61067960048036038101906106749190613789565b611cb7565b005b600063cad96cca60e01b7bffffffffffffffffffffffffffffffffffffffffffffffffffffffff1916827bffffffffffffffffffffffffffffffffffffffffffffffffffffffff191614156106d35760019050610735565b632a55205a60e01b7bffffffffffffffffffffffffffffffffffffffffffffffffffffffff1916827bffffffffffffffffffffffffffffffffffffffffffffffffffffffff191614156107295760019050610735565b61073282611d3b565b90505b919050565b606060008054610749906148b2565b80601f0160208091040260200160405190810160405280929190818152602001828054610775906148b2565b80156107c25780601f10610797576101008083540402835291602001916107c2565b820191906000526020600020905b8154815290600101906020018083116107a557829003601f168201915b5050505050905090565b60006107d782611d9c565b6004600083815260200190815260200160002060009054906101000a900473ffffffffffffffffffffffffffffffffffffffff169050919050565b600061081d8261105d565b90508073ffffffffffffffffffffffffffffffffffffffff168373ffffffffffffffffffffffffffffffffffffffff16141561088e576040517f08c379a000000000000000000000000000000000000000000000000000000000815260040161088590614441565b60405180910390fd5b8073ffffffffffffffffffffffffffffffffffffffff166108ad611de7565b73ffffffffffffffffffffffffffffffffffffffff1614806108dc57506108db816108d6611de7565b611c23565b5b61091b576040517f08c379a000000000000000000000000000000000000000000000000000000000815260040161091290614481565b60405180910390fd5b6109258383611def565b505050565b600c602052806000526040600020600091509050806000015490806001018054610953906148b2565b80601f016020809104026020016040519081016040528092919081815260200182805461097f906148b2565b80156109cc5780601f106109a1576101008083540402835291602001916109cc565b820191906000526020600020905b8154815290600101906020018083116109af57829003601f168201915b5050505050905082565b6109df81611ea8565b610a1e576040517f08c379a0000000000000000000000000000000000000000000000000000000008152600401610a1590614321565b60405180910390fd5b8173ffffffffffffffffffffffffffffffffffffffff16610a3e8261186f565b73ffffffffffffffffffffffffffffffffffffffff161415610a95576040517f08c379a0000000000000000000000000000000000000000000000000000000008152600401610a8c90614381565b60405180910390fd5b8273ffffffffffffffffffffffffffffffffffffffff16610ab58261186f565b73ffffffffffffffffffffffffffffffffffffffff1614610b0b576040517f08c379a0000000000000000000000000000000000000000000000000000000008152600401610b0290614501565b60405180910390fd5b600073ffffffffffffffffffffffffffffffffffffffff168373ffffffffffffffffffffffffffffffffffffffff161415610b7b576040517f08c379a0000000000000000000000000000000000000000000000000000000008152600401610b7290614461565b60405180910390fd5b600073ffffffffffffffffffffffffffffffffffffffff168273ffffffffffffffffffffffffffffffffffffffff161415610beb576040517f08c379a0000000000000000000000000000000000000000000000000000000008152600401610be290614401565b60405180910390fd5b610bf6838383611ee9565b6001600e600083815260200190815260200160002060006101000a81548160ff02191690831515021790555081600f600083815260200190815260200160002060006101000a81548173ffffffffffffffffffffffffffffffffffffffff021916908373ffffffffffffffffffffffffffffffffffffffff160217905550505050565b600080600060096000868152602001908152602001600020805480602002602001604051908101604052809291908181526020016000905b82821015610d73578382906000526020600020016040518060400160405290816000820160009054906101000a900473ffffffffffffffffffffffffffffffffffffffff1673ffffffffffffffffffffffffffffffffffffffff1673ffffffffffffffffffffffffffffffffffffffff1681526020016000820160149054906101000a90046bffffffffffffffffffffffff166bffffffffffffffffffffffff166bffffffffffffffffffffffff168152505081526020019060010190610cb1565b505050509050600081511115610e3f5780600081518110610dbd577f4e487b7100000000000000000000000000000000000000000000000000000000600052603260045260246000fd5b60200260200101516000015161271082600081518110610e06577f4e487b7100000000000000000000000000000000000000000000000000000000600052603260045260246000fd5b6020026020010151602001516bffffffffffffffffffffffff1686610e2b9190614778565b610e359190614747565b9250925050610e48565b60008092509250505b9250929050565b600b600c9054906101000a900473ffffffffffffffffffffffffffffffffffffffff1681565b610e908383836040518060200160405280600081525061180d565b505050565b600d602052806000526040600020600091509050806000015490806001018054610ebe906148b2565b80601f0160208091040260200160405190810160405280929190818152602001828054610eea906148b2565b8015610f375780601f10610f0c57610100808354040283529160200191610f37565b820191906000526020600020905b815481529060010190602001808311610f1a57829003601f168201915b505050505090806002018054610f4c906148b2565b80601f0160208091040260200160405190810160405280929190818152602001828054610f78906148b2565b8015610fc55780601f10610f9a57610100808354040283529160200191610fc5565b820191906000526020600020905b815481529060010190602001808311610fa857829003601f168201915b505050505090806003018054610fda906148b2565b80601f0160208091040260200160405190810160405280929190818152602001828054611006906148b2565b80156110535780601f1061102857610100808354040283529160200191611053565b820191906000526020600020905b81548152906001019060200180831161103657829003601f168201915b5050505050905084565b600080611069836121e3565b9050600073ffffffffffffffffffffffffffffffffffffffff168173ffffffffffffffffffffffffffffffffffffffff1614156110db576040517f08c379a00000000000000000000000000000000000000000000000000000000081526004016110d290614421565b60405180910390fd5b80915050919050565b60006010600083815260200190815260200160002060009054906101000a900460ff169050919050565b611116613471565b600d60008381526020019081526020016000206040518060800160405290816000820154815260200160018201805461114e906148b2565b80601f016020809104026020016040519081016040528092919081815260200182805461117a906148b2565b80156111c75780601f1061119c576101008083540402835291602001916111c7565b820191906000526020600020905b8154815290600101906020018083116111aa57829003601f168201915b505050505081526020016002820180546111e0906148b2565b80601f016020809104026020016040519081016040528092919081815260200182805461120c906148b2565b80156112595780601f1061122e57610100808354040283529160200191611259565b820191906000526020600020905b81548152906001019060200180831161123c57829003601f168201915b50505050508152602001600382018054611272906148b2565b80601f016020809104026020016040519081016040528092919081815260200182805461129e906148b2565b80156112eb5780601f106112c0576101008083540402835291602001916112eb565b820191906000526020600020905b8154815290600101906020018083116112ce57829003601f168201915b5050505050815250509050919050565b60008073ffffffffffffffffffffffffffffffffffffffff168273ffffffffffffffffffffffffffffffffffffffff16141561136c576040517f08c379a000000000000000000000000000000000000000000000000000000000815260040161136390614341565b60405180910390fd5b600360008373ffffffffffffffffffffffffffffffffffffffff1673ffffffffffffffffffffffffffffffffffffffff168152602001908152602001600020549050919050565b6113bb612220565b6113c5600061229e565b565b600b60009054906101000a90046bffffffffffffffffffffffff1681565b6000600e600083815260200190815260200160002060009054906101000a900460ff169050919050565b6009602052816000526040600020818154811061142b57600080fd5b90600052602060002001600091509150508060000160009054906101000a900473ffffffffffffffffffffffffffffffffffffffff16908060000160149054906101000a90046bffffffffffffffffffffffff16905082565b6000600760009054906101000a900473ffffffffffffffffffffffffffffffffffffffff16905090565b6060600180546114bd906148b2565b80601f01602080910402602001604051908101604052809291908181526020018280546114e9906148b2565b80156115365780601f1061150b57610100808354040283529160200191611536565b820191906000526020600020905b81548152906001019060200180831161151957829003601f168201915b5050505050905090565b600a5481565b611558611551611de7565b8383612364565b5050565b60006115666124d1565b61156e612220565b600a600081548092919061158190614915565b9190505550611591600a54611ea8565b156115d1576040517f08c379a00000000000000000000000000000000000000000000000000000000081526004016115c8906144a1565b60405180910390fd5b6115dd85600a54612521565b6115e9600a548561253f565b6115f1613499565b600a5481600001818152505083816020018190525080600c6000600a5481526020019081526020016000206000820151816000015560208201518160010190805190602001906116429291906134b3565b5090505061164e613471565b836000015181600001818152505083602001518160200181905250836040015181604001819052508360600151816060018190525080600d6000600a5481526020019081526020016000206000820151816000015560208201518160010190805190602001906116bf9291906134b3565b5060408201518160020190805190602001906116dc9291906134b3565b5060608201518160030190805190602001906116f99291906134b3565b509050506000600e6000600a54815260200190815260200160002060006101000a81548160ff021916908315150217905550600060106000600a54815260200190815260200160002060006101000a81548160ff02191690831515021790555086600f6000600a54815260200190815260200160002060006101000a81548173ffffffffffffffffffffffffffffffffffffffff021916908373ffffffffffffffffffffffffffffffffffffffff1602179055506117f6600a54600b600c9054906101000a900473ffffffffffffffffffffffffffffffffffffffff16600b60009054906101000a90046bffffffffffffffffffffffff166125ea565b600a5492505050611805612763565b949350505050565b61181e611818611de7565b8361276d565b61185d576040517f08c379a000000000000000000000000000000000000000000000000000000000815260040161185490614201565b60405180910390fd5b61186984848484612802565b50505050565b600061187a8261105d565b9050919050565b606061188c82611d9c565b60006006600084815260200190815260200160002080546118ac906148b2565b80601f01602080910402602001604051908101604052809291908181526020018280546118d8906148b2565b80156119255780601f106118fa57610100808354040283529160200191611925565b820191906000526020600020905b81548152906001019060200180831161190857829003601f168201915b50505050509050600061193661285e565b905060008151141561194c57819250505061198f565b60008251111561198157808260405160200161196992919061408a565b6040516020818303038152906040529250505061198f565b61198a84612875565b925050505b919050565b606060096000838152602001908152602001600020805480602002602001604051908101604052809291908181526020016000905b82821015611a8b578382906000526020600020016040518060400160405290816000820160009054906101000a900473ffffffffffffffffffffffffffffffffffffffff1673ffffffffffffffffffffffffffffffffffffffff1673ffffffffffffffffffffffffffffffffffffffff1681526020016000820160149054906101000a90046bffffffffffffffffffffffff166bffffffffffffffffffffffff166bffffffffffffffffffffffff1681525050815260200190600101906119c9565b505050509050919050565b6000611aa183611ea8565b611ae0576040517f08c379a0000000000000000000000000000000000000000000000000000000008152600401611ad790614321565b60405180910390fd5b611ae9836110e4565b15611b29576040517f08c379a0000000000000000000000000000000000000000000000000000000008152600401611b20906141e1565b60405180910390fd5b81611b338461110e565b6000015114611b77576040517f08c379a0000000000000000000000000000000000000000000000000000000008152600401611b6e90614301565b60405180910390fd5b3373ffffffffffffffffffffffffffffffffffffffff16611b978461186f565b73ffffffffffffffffffffffffffffffffffffffff1614611bed576040517f08c379a0000000000000000000000000000000000000000000000000000000008152600401611be4906143e1565b60405180910390fd5b60016010600085815260200190815260200160002060006101000a81548160ff0219169083151502179055506001905092915050565b6000600560008473ffffffffffffffffffffffffffffffffffffffff1673ffffffffffffffffffffffffffffffffffffffff16815260200190815260200160002060008373ffffffffffffffffffffffffffffffffffffffff1673ffffffffffffffffffffffffffffffffffffffff16815260200190815260200160002060009054906101000a900460ff16905092915050565b611cbf612220565b600073ffffffffffffffffffffffffffffffffffffffff168173ffffffffffffffffffffffffffffffffffffffff161415611d2f576040517f08c379a0000000000000000000000000000000000000000000000000000000008152600401611d2690614241565b60405180910390fd5b611d388161229e565b50565b6000634906490660e01b7bffffffffffffffffffffffffffffffffffffffffffffffffffffffff1916827bffffffffffffffffffffffffffffffffffffffffffffffffffffffff19161480611d955750611d94826128dd565b5b9050919050565b611da581611ea8565b611de4576040517f08c379a0000000000000000000000000000000000000000000000000000000008152600401611ddb90614421565b60405180910390fd5b50565b600033905090565b816004600083815260200190815260200160002060006101000a81548173ffffffffffffffffffffffffffffffffffffffff021916908373ffffffffffffffffffffffffffffffffffffffff160217905550808273ffffffffffffffffffffffffffffffffffffffff16611e628361105d565b73ffffffffffffffffffffffffffffffffffffffff167f8c5be1e5ebec7d5bd14f71427d1e84f3dd0314c0f7b2291e5b200ac8c7c3b92560405160405180910390a45050565b60008073ffffffffffffffffffffffffffffffffffffffff16611eca836121e3565b73ffffffffffffffffffffffffffffffffffffffff1614159050919050565b8273ffffffffffffffffffffffffffffffffffffffff16611f098261105d565b73ffffffffffffffffffffffffffffffffffffffff1614611f5f576040517f08c379a0000000000000000000000000000000000000000000000000000000008152600401611f5690614261565b60405180910390fd5b600073ffffffffffffffffffffffffffffffffffffffff168273ffffffffffffffffffffffffffffffffffffffff161415611fcf576040517f08c379a0000000000000000000000000000000000000000000000000000000008152600401611fc6906142a1565b60405180910390fd5b611fdc83838360016129bf565b8273ffffffffffffffffffffffffffffffffffffffff16611ffc8261105d565b73ffffffffffffffffffffffffffffffffffffffff1614612052576040517f08c379a000000000000000000000000000000000000000000000000000000000815260040161204990614261565b60405180910390fd5b6004600082815260200190815260200160002060006101000a81549073ffffffffffffffffffffffffffffffffffffffff02191690556001600360008573ffffffffffffffffffffffffffffffffffffffff1673ffffffffffffffffffffffffffffffffffffffff168152602001908152602001600020600082825403925050819055506001600360008473ffffffffffffffffffffffffffffffffffffffff1673ffffffffffffffffffffffffffffffffffffffff16815260200190815260200160002060008282540192505081905550816002600083815260200190815260200160002060006101000a81548173ffffffffffffffffffffffffffffffffffffffff021916908373ffffffffffffffffffffffffffffffffffffffff160217905550808273ffffffffffffffffffffffffffffffffffffffff168473ffffffffffffffffffffffffffffffffffffffff167fddf252ad1be2c89b69c2b068fc378daa952ba7f163c4a11628f55a4df523b3ef60405160405180910390a46121de83838360016129c5565b505050565b60006002600083815260200190815260200160002060009054906101000a900473ffffffffffffffffffffffffffffffffffffffff169050919050565b612228611de7565b73ffffffffffffffffffffffffffffffffffffffff16612246611484565b73ffffffffffffffffffffffffffffffffffffffff161461229c576040517f08c379a0000000000000000000000000000000000000000000000000000000008152600401612293906143c1565b60405180910390fd5b565b6000600760009054906101000a900473ffffffffffffffffffffffffffffffffffffffff16905081600760006101000a81548173ffffffffffffffffffffffffffffffffffffffff021916908373ffffffffffffffffffffffffffffffffffffffff1602179055508173ffffffffffffffffffffffffffffffffffffffff168173ffffffffffffffffffffffffffffffffffffffff167f8be0079c531659141344cd1fd0a4f28419497f9722a3daafe3b4186f6b6457e060405160405180910390a35050565b8173ffffffffffffffffffffffffffffffffffffffff168373ffffffffffffffffffffffffffffffffffffffff1614156123d3576040517f08c379a00000000000000000000000000000000000000000000000000000000081526004016123ca906142c1565b60405180910390fd5b80600560008573ffffffffffffffffffffffffffffffffffffffff1673ffffffffffffffffffffffffffffffffffffffff16815260200190815260200160002060008473ffffffffffffffffffffffffffffffffffffffff1673ffffffffffffffffffffffffffffffffffffffff16815260200190815260200160002060006101000a81548160ff0219169083151502179055508173ffffffffffffffffffffffffffffffffffffffff168373ffffffffffffffffffffffffffffffffffffffff167f17307eab39ab6107e8899845ad3d59bd9653f200f220920489ca2b5937696c31836040516124c491906141a4565b60405180910390a3505050565b60026008541415612517576040517f08c379a000000000000000000000000000000000000000000000000000000000815260040161250e906144c1565b60405180910390fd5b6002600881905550565b61253b8282604051806020016040528060008152506129cb565b5050565b61254882611ea8565b612587576040517f08c379a000000000000000000000000000000000000000000000000000000000815260040161257e90614361565b60405180910390fd5b806006600084815260200190815260200160002090805190602001906125ae9291906134b3565b507ff8e1a15aba9398e019f0b49df1a4fde98ee17ae345cb5f6b5e2c27f5033e8ce7826040516125de9190614543565b60405180910390a15050565b6125f2612220565b6000600167ffffffffffffffff811115612635577f4e487b7100000000000000000000000000000000000000000000000000000000600052604160045260246000fd5b60405190808252806020026020018201604052801561266e57816020015b61265b613539565b8152602001906001900390816126535790505b50905081816000815181106126ac577f4e487b7100000000000000000000000000000000000000000000000000000000600052603260045260246000fd5b6020026020010151602001906bffffffffffffffffffffffff1690816bffffffffffffffffffffffff16815250508281600081518110612715577f4e487b7100000000000000000000000000000000000000000000000000000000600052603260045260246000fd5b60200260200101516000019073ffffffffffffffffffffffffffffffffffffffff16908173ffffffffffffffffffffffffffffffffffffffff168152505061275d8482612a26565b50505050565b6001600881905550565b6000806127798361105d565b90508073ffffffffffffffffffffffffffffffffffffffff168473ffffffffffffffffffffffffffffffffffffffff1614806127bb57506127ba8185611c23565b5b806127f957508373ffffffffffffffffffffffffffffffffffffffff166127e1846107cc565b73ffffffffffffffffffffffffffffffffffffffff16145b91505092915050565b61280d848484611ee9565b61281984848484612c97565b612858576040517f08c379a000000000000000000000000000000000000000000000000000000000815260040161284f90614221565b60405180910390fd5b50505050565b606060405180602001604052806000815250905090565b606061288082611d9c565b600061288a61285e565b905060008151116128aa57604051806020016040528060008152506128d5565b806128b484612e2e565b6040516020016128c592919061408a565b6040516020818303038152906040525b915050919050565b60007f80ac58cd000000000000000000000000000000000000000000000000000000007bffffffffffffffffffffffffffffffffffffffffffffffffffffffff1916827bffffffffffffffffffffffffffffffffffffffffffffffffffffffff191614806129a857507f5b5e139f000000000000000000000000000000000000000000000000000000007bffffffffffffffffffffffffffffffffffffffffffffffffffffffff1916827bffffffffffffffffffffffffffffffffffffffffffffffffffffffff1916145b806129b857506129b782612f52565b5b9050919050565b50505050565b50505050565b6129d58383612fbc565b6129e26000848484612c97565b612a21576040517f08c379a0000000000000000000000000000000000000000000000000000000008152600401612a1890614221565b60405180910390fd5b505050565b60005b8151811015612c8857600073ffffffffffffffffffffffffffffffffffffffff16828281518110612a83577f4e487b7100000000000000000000000000000000000000000000000000000000600052603260045260246000fd5b60200260200101516000015173ffffffffffffffffffffffffffffffffffffffff161415612ae6576040517f08c379a0000000000000000000000000000000000000000000000000000000008152600401612add906144e1565b60405180910390fd5b6000828281518110612b21577f4e487b7100000000000000000000000000000000000000000000000000000000600052603260045260246000fd5b6020026020010151602001516bffffffffffffffffffffffff161415612b7c576040517f08c379a0000000000000000000000000000000000000000000000000000000008152600401612b73906142e1565b60405180910390fd5b60096000848152602001908152602001600020828281518110612bc8577f4e487b7100000000000000000000000000000000000000000000000000000000600052603260045260246000fd5b60200260200101519080600181540180825580915050600190039060005260206000200160009091909190915060008201518160000160006101000a81548173ffffffffffffffffffffffffffffffffffffffff021916908373ffffffffffffffffffffffffffffffffffffffff16021790555060208201518160000160146101000a8154816bffffffffffffffffffffffff02191690836bffffffffffffffffffffffff16021790555050508080612c8090614915565b915050612a29565b50612c9382826131da565b5050565b6000612cb88473ffffffffffffffffffffffffffffffffffffffff16613217565b15612e21578373ffffffffffffffffffffffffffffffffffffffff1663150b7a02612ce1611de7565b8786866040518563ffffffff1660e01b8152600401612d03949392919061410d565b602060405180830381600087803b158015612d1d57600080fd5b505af1925050508015612d4e57506040513d601f19601f82011682018060405250810190612d4b9190613a04565b60015b612dd1573d8060008114612d7e576040519150601f19603f3d011682016040523d82523d6000602084013e612d83565b606091505b50600081511415612dc9576040517f08c379a0000000000000000000000000000000000000000000000000000000008152600401612dc090614221565b60405180910390fd5b805181602001fd5b63150b7a0260e01b7bffffffffffffffffffffffffffffffffffffffffffffffffffffffff1916817bffffffffffffffffffffffffffffffffffffffffffffffffffffffff191614915050612e26565b600190505b949350505050565b606060006001612e3d8461323a565b01905060008167ffffffffffffffff811115612e82577f4e487b7100000000000000000000000000000000000000000000000000000000600052604160045260246000fd5b6040519080825280601f01601f191660200182016040528015612eb45781602001600182028036833780820191505090505b509050600082602001820190505b600115612f47578080600190039150507f3031323334353637383961626364656600000000000000000000000000000000600a86061a8153600a8581612f31577f4e487b7100000000000000000000000000000000000000000000000000000000600052601260045260246000fd5b0494506000851415612f4257612f47565b612ec2565b819350505050919050565b60007f01ffc9a7000000000000000000000000000000000000000000000000000000007bffffffffffffffffffffffffffffffffffffffffffffffffffffffff1916827bffffffffffffffffffffffffffffffffffffffffffffffffffffffff1916149050919050565b600073ffffffffffffffffffffffffffffffffffffffff168273ffffffffffffffffffffffffffffffffffffffff16141561302c576040517f08c379a0000000000000000000000000000000000000000000000000000000008152600401613023906143a1565b60405180910390fd5b61303581611ea8565b15613075576040517f08c379a000000000000000000000000000000000000000000000000000000000815260040161306c90614281565b60405180910390fd5b6130836000838360016129bf565b61308c81611ea8565b156130cc576040517f08c379a00000000000000000000000000000000000000000000000000000000081526004016130c390614281565b60405180910390fd5b6001600360008473ffffffffffffffffffffffffffffffffffffffff1673ffffffffffffffffffffffffffffffffffffffff16815260200190815260200160002060008282540192505081905550816002600083815260200190815260200160002060006101000a81548173ffffffffffffffffffffffffffffffffffffffff021916908373ffffffffffffffffffffffffffffffffffffffff160217905550808273ffffffffffffffffffffffffffffffffffffffff16600073ffffffffffffffffffffffffffffffffffffffff167fddf252ad1be2c89b69c2b068fc378daa952ba7f163c4a11628f55a4df523b3ef60405160405180910390a46131d66000838360016129c5565b5050565b7f3fa96d7b6bcbfe71ef171666d84db3cf52fa2d1c8afdb1cc8e486177f208b7df828260405161320b92919061455e565b60405180910390a15050565b6000808273ffffffffffffffffffffffffffffffffffffffff163b119050919050565b600080600090507a184f03e93ff9f4daa797ed6e38ed64bf6a1f01000000000000000083106132be577a184f03e93ff9f4daa797ed6e38ed64bf6a1f01000000000000000083816132b4577f4e487b7100000000000000000000000000000000000000000000000000000000600052601260045260246000fd5b0492506040810190505b6d04ee2d6d415b85acef81000000008310613321576d04ee2d6d415b85acef81000000008381613317577f4e487b7100000000000000000000000000000000000000000000000000000000600052601260045260246000fd5b0492506020810190505b662386f26fc10000831061337657662386f26fc10000838161336c577f4e487b7100000000000000000000000000000000000000000000000000000000600052601260045260246000fd5b0492506010810190505b6305f5e10083106133c5576305f5e10083816133bb577f4e487b7100000000000000000000000000000000000000000000000000000000600052601260045260246000fd5b0492506008810190505b6127108310613410576127108381613406577f4e487b7100000000000000000000000000000000000000000000000000000000600052601260045260246000fd5b0492506004810190505b60648310613459576064838161344f577f4e487b7100000000000000000000000000000000000000000000000000000000600052601260045260246000fd5b0492506002810190505b600a8310613468576001810190505b80915050919050565b6040518060800160405280600081526020016060815260200160608152602001606081525090565b604051806040016040528060008152602001606081525090565b8280546134bf906148b2565b90600052602060002090601f0160209004810192826134e15760008555613528565b82601f106134fa57805160ff1916838001178555613528565b82800160010185558215613528579182015b8281111561352757825182559160200191906001019061350c565b5b5090506135359190613577565b5090565b6040518060400160405280600073ffffffffffffffffffffffffffffffffffffffff16815260200160006bffffffffffffffffffffffff1681525090565b5b80821115613590576000816000905550600101613578565b5090565b60006135a76135a284614658565b614633565b9050828152602081018484840111156135bf57600080fd5b6135ca848285614870565b509392505050565b60006135e56135e084614689565b614633565b9050828152602081018484840111156135fd57600080fd5b613608848285614870565b509392505050565b60008135905061361f81615043565b92915050565b6000813590506136348161505a565b92915050565b60008135905061364981615071565b92915050565b60008151905061365e81615071565b92915050565b600082601f83011261367557600080fd5b8135613685848260208601613594565b91505092915050565b600082601f83011261369f57600080fd5b81356136af8482602086016135d2565b91505092915050565b6000608082840312156136ca57600080fd5b6136d46080614633565b905060006136e484828501613774565b600083015250602082013567ffffffffffffffff81111561370457600080fd5b6137108482850161368e565b602083015250604082013567ffffffffffffffff81111561373057600080fd5b61373c8482850161368e565b604083015250606082013567ffffffffffffffff81111561375c57600080fd5b6137688482850161368e565b60608301525092915050565b60008135905061378381615088565b92915050565b60006020828403121561379b57600080fd5b60006137a984828501613610565b91505092915050565b600080604083850312156137c557600080fd5b60006137d385828601613610565b92505060206137e485828601613610565b9150509250929050565b60008060006060848603121561380357600080fd5b600061381186828701613610565b935050602061382286828701613610565b925050604061383386828701613774565b9150509250925092565b6000806000806080858703121561385357600080fd5b600061386187828801613610565b945050602061387287828801613610565b935050604061388387828801613774565b925050606085013567ffffffffffffffff8111156138a057600080fd5b6138ac87828801613664565b91505092959194509250565b600080604083850312156138cb57600080fd5b60006138d985828601613610565b92505060206138ea85828601613625565b9150509250929050565b6000806000806080858703121561390a57600080fd5b600061391887828801613610565b945050602085013567ffffffffffffffff81111561393557600080fd5b6139418782880161368e565b935050604085013567ffffffffffffffff81111561395e57600080fd5b61396a8782880161368e565b925050606085013567ffffffffffffffff81111561398757600080fd5b613993878288016136b8565b91505092959194509250565b600080604083850312156139b257600080fd5b60006139c085828601613610565b92505060206139d185828601613774565b9150509250929050565b6000602082840312156139ed57600080fd5b60006139fb8482850161363a565b91505092915050565b600060208284031215613a1657600080fd5b6000613a248482850161364f565b91505092915050565b600060208284031215613a3f57600080fd5b6000613a4d84828501613774565b91505092915050565b60008060408385031215613a6957600080fd5b6000613a7785828601613774565b9250506020613a8885828601613774565b9150509250929050565b6000613a9e838361401f565b60408301905092915050565b613ab3816147e4565b82525050565b613ac2816147e4565b82525050565b613ad1816147d2565b82525050565b6000613ae2826146ca565b613aec81856146f8565b9350613af7836146ba565b8060005b83811015613b28578151613b0f8882613a92565b9750613b1a836146eb565b925050600181019050613afb565b5085935050505092915050565b613b3e816147f6565b82525050565b6000613b4f826146d5565b613b598185614709565b9350613b6981856020860161487f565b613b7281614a1a565b840191505092915050565b6000613b88826146e0565b613b92818561471a565b9350613ba281856020860161487f565b613bab81614a1a565b840191505092915050565b6000613bc1826146e0565b613bcb818561472b565b9350613bdb81856020860161487f565b613be481614a1a565b840191505092915050565b6000613bfa826146e0565b613c04818561473c565b9350613c1481856020860161487f565b80840191505092915050565b6000613c2d60248361472b565b9150613c3882614a2b565b604082019050919050565b6000613c50602d8361472b565b9150613c5b82614a7a565b604082019050919050565b6000613c7360328361472b565b9150613c7e82614ac9565b604082019050919050565b6000613c9660268361472b565b9150613ca182614b18565b604082019050919050565b6000613cb960258361472b565b9150613cc482614b67565b604082019050919050565b6000613cdc601c8361472b565b9150613ce782614bb6565b602082019050919050565b6000613cff60248361472b565b9150613d0a82614bdf565b604082019050919050565b6000613d2260198361472b565b9150613d2d82614c2e565b602082019050919050565b6000613d4560208361472b565b9150613d5082614c57565b602082019050919050565b6000613d6860238361472b565b9150613d7382614c80565b604082019050919050565b6000613d8b601d8361472b565b9150613d9682614ccf565b602082019050919050565b6000613dae60298361472b565b9150613db982614cf8565b604082019050919050565b6000613dd1602e8361472b565b9150613ddc82614d47565b604082019050919050565b6000613df460358361472b565b9150613dff82614d96565b604082019050919050565b6000613e1760208361472b565b9150613e2282614de5565b602082019050919050565b6000613e3a60208361472b565b9150613e4582614e0e565b602082019050919050565b6000613e5d601c8361472b565b9150613e6882614e37565b602082019050919050565b6000613e80601a8361472b565b9150613e8b82614e60565b602082019050919050565b6000613ea360188361472b565b9150613eae82614e89565b602082019050919050565b6000613ec660218361472b565b9150613ed182614eb2565b604082019050919050565b6000613ee9601c8361472b565b9150613ef482614f01565b602082019050919050565b6000613f0c603d8361472b565b9150613f1782614f2a565b604082019050919050565b6000613f2f601d8361472b565b9150613f3a82614f79565b602082019050919050565b6000613f52601f8361472b565b9150613f5d82614fa2565b602082019050919050565b6000613f75601b8361472b565b9150613f8082614fcb565b602082019050919050565b6000613f9860338361472b565b9150613fa382614ff4565b604082019050919050565b6000608083016000830151613fc6600086018261404e565b5060208301518482036020860152613fde8282613b7d565b91505060408301518482036040860152613ff88282613b7d565b915050606083015184820360608601526140128282613b7d565b9150508091505092915050565b6040820160008201516140356000850182613aaa565b506020820151614048602085018261406c565b50505050565b6140578161484e565b82525050565b6140668161484e565b82525050565b61407581614858565b82525050565b61408481614858565b82525050565b60006140968285613bef565b91506140a28284613bef565b91508190509392505050565b60006020820190506140c36000830184613ac8565b92915050565b60006020820190506140de6000830184613ab9565b92915050565b60006040820190506140f96000830185613ab9565b614106602083018461407b565b9392505050565b60006080820190506141226000830187613ac8565b61412f6020830186613ac8565b61413c604083018561405d565b818103606083015261414e8184613b44565b905095945050505050565b600060408201905061416e6000830185613ac8565b61417b602083018461405d565b9392505050565b6000602082019050818103600083015261419c8184613ad7565b905092915050565b60006020820190506141b96000830184613b35565b92915050565b600060208201905081810360008301526141d98184613bb6565b905092915050565b600060208201905081810360008301526141fa81613c20565b9050919050565b6000602082019050818103600083015261421a81613c43565b9050919050565b6000602082019050818103600083015261423a81613c66565b9050919050565b6000602082019050818103600083015261425a81613c89565b9050919050565b6000602082019050818103600083015261427a81613cac565b9050919050565b6000602082019050818103600083015261429a81613ccf565b9050919050565b600060208201905081810360008301526142ba81613cf2565b9050919050565b600060208201905081810360008301526142da81613d15565b9050919050565b600060208201905081810360008301526142fa81613d38565b9050919050565b6000602082019050818103600083015261431a81613d5b565b9050919050565b6000602082019050818103600083015261433a81613d7e565b9050919050565b6000602082019050818103600083015261435a81613da1565b9050919050565b6000602082019050818103600083015261437a81613dc4565b9050919050565b6000602082019050818103600083015261439a81613de7565b9050919050565b600060208201905081810360008301526143ba81613e0a565b9050919050565b600060208201905081810360008301526143da81613e2d565b9050919050565b600060208201905081810360008301526143fa81613e50565b9050919050565b6000602082019050818103600083015261441a81613e73565b9050919050565b6000602082019050818103600083015261443a81613e96565b9050919050565b6000602082019050818103600083015261445a81613eb9565b9050919050565b6000602082019050818103600083015261447a81613edc565b9050919050565b6000602082019050818103600083015261449a81613eff565b9050919050565b600060208201905081810360008301526144ba81613f22565b9050919050565b600060208201905081810360008301526144da81613f45565b9050919050565b600060208201905081810360008301526144fa81613f68565b9050919050565b6000602082019050818103600083015261451a81613f8b565b9050919050565b6000602082019050818103600083015261453b8184613fae565b905092915050565b6000602082019050614558600083018461405d565b92915050565b6000604082019050614573600083018561405d565b81810360208301526145858184613ad7565b90509392505050565b60006040820190506145a3600083018561405d565b81810360208301526145b58184613bb6565b90509392505050565b60006080820190506145d3600083018761405d565b81810360208301526145e58186613bb6565b905081810360408301526145f98185613bb6565b9050818103606083015261460d8184613bb6565b905095945050505050565b600060208201905061462d600083018461407b565b92915050565b600061463d61464e565b905061464982826148e4565b919050565b6000604051905090565b600067ffffffffffffffff821115614673576146726149eb565b5b61467c82614a1a565b9050602081019050919050565b600067ffffffffffffffff8211156146a4576146a36149eb565b5b6146ad82614a1a565b9050602081019050919050565b6000819050602082019050919050565b600081519050919050565b600081519050919050565b600081519050919050565b6000602082019050919050565b600082825260208201905092915050565b600082825260208201905092915050565b600082825260208201905092915050565b600082825260208201905092915050565b600081905092915050565b60006147528261484e565b915061475d8361484e565b92508261476d5761476c61498d565b5b828204905092915050565b60006147838261484e565b915061478e8361484e565b9250817fffffffffffffffffffffffffffffffffffffffffffffffffffffffffffffffff04831182151516156147c7576147c661495e565b5b828202905092915050565b60006147dd8261482e565b9050919050565b60006147ef8261482e565b9050919050565b60008115159050919050565b60007fffffffff0000000000000000000000000000000000000000000000000000000082169050919050565b600073ffffffffffffffffffffffffffffffffffffffff82169050919050565b6000819050919050565b60006bffffffffffffffffffffffff82169050919050565b82818337600083830152505050565b60005b8381101561489d578082015181840152602081019050614882565b838111156148ac576000848401525b50505050565b600060028204905060018216806148ca57607f821691505b602082108114156148de576148dd6149bc565b5b50919050565b6148ed82614a1a565b810181811067ffffffffffffffff8211171561490c5761490b6149eb565b5b80604052505050565b60006149208261484e565b91507fffffffffffffffffffffffffffffffffffffffffffffffffffffffffffffffff8214156149535761495261495e565b5b600182019050919050565b7f4e487b7100000000000000000000000000000000000000000000000000000000600052601160045260246000fd5b7f4e487b7100000000000000000000000000000000000000000000000000000000600052601260045260246000fd5b7f4e487b7100000000000000000000000000000000000000000000000000000000600052602260045260246000fd5b7f4e487b7100000000000000000000000000000000000000000000000000000000600052604160045260246000fd5b6000601f19601f8301169050919050565b7f4552433732313a205469636b65742068617320616c7265616479206265656e2060008201527f7573656400000000000000000000000000000000000000000000000000000000602082015250565b7f4552433732313a2063616c6c6572206973206e6f7420746f6b656e206f776e6560008201527f72206f7220617070726f76656400000000000000000000000000000000000000602082015250565b7f4552433732313a207472616e7366657220746f206e6f6e20455243373231526560008201527f63656976657220696d706c656d656e7465720000000000000000000000000000602082015250565b7f4f776e61626c653a206e6577206f776e657220697320746865207a65726f206160008201527f6464726573730000000000000000000000000000000000000000000000000000602082015250565b7f4552433732313a207472616e736665722066726f6d20696e636f72726563742060008201527f6f776e6572000000000000000000000000000000000000000000000000000000602082015250565b7f4552433732313a20746f6b656e20616c7265616479206d696e74656400000000600082015250565b7f4552433732313a207472616e7366657220746f20746865207a65726f2061646460008201527f7265737300000000000000000000000000000000000000000000000000000000602082015250565b7f4552433732313a20617070726f766520746f2063616c6c657200000000000000600082015250565b7f526f79616c74792076616c75652073686f756c6420626520706f736974697665600082015250565b7f4552433732313a204e6f742061207469636b65742066726f6d2074686520657660008201527f656e740000000000000000000000000000000000000000000000000000000000602082015250565b7f4552433732313a205469636b657420646f6573206e6f74206578697374000000600082015250565b7f4552433732313a2061646472657373207a65726f206973206e6f74206120766160008201527f6c6964206f776e65720000000000000000000000000000000000000000000000602082015250565b7f45524337323155524953746f726167653a2055524920736574206f66206e6f6e60008201527f6578697374656e7420746f6b656e000000000000000000000000000000000000602082015250565b7f4552433732313a20546f206164647265737320697320616c726561647920746860008201527f65206f776e6572206f6620746865207469636b65740000000000000000000000602082015250565b7f4552433732313a206d696e7420746f20746865207a65726f2061646472657373600082015250565b7f4f776e61626c653a2063616c6c6572206973206e6f7420746865206f776e6572600082015250565b7f4552433732313a204e6f7420746865207469636b6574206f776e657200000000600082015250565b7f4552433732313a20496e76616c696420746f2061646472657373000000000000600082015250565b7f4552433732313a20696e76616c696420746f6b656e2049440000000000000000600082015250565b7f4552433732313a20617070726f76616c20746f2063757272656e74206f776e6560008201527f7200000000000000000000000000000000000000000000000000000000000000602082015250565b7f4552433732313a20496e76616c69642066726f6d206164647265737300000000600082015250565b7f4552433732313a20617070726f76652063616c6c6572206973206e6f7420746f60008201527f6b656e206f776e6572206f7220617070726f76656420666f7220616c6c000000602082015250565b7f4552433732313a205469636b657420616c726561647920657869737473000000600082015250565b7f5265656e7472616e637947756172643a207265656e7472616e742063616c6c00600082015250565b7f526563697069656e742073686f756c642062652070726573656e740000000000600082015250565b7f4552433732313a2046726f6d2061646472657373206973206e6f74207468652060008201527f6f776e6572206f6620746865207469636b657400000000000000000000000000602082015250565b61504c816147d2565b811461505757600080fd5b50565b615063816147f6565b811461506e57600080fd5b50565b61507a81614802565b811461508557600080fd5b50565b6150918161484e565b811461509c57600080fd5b5056fea264697066735822122058ac0948e40532872bf175c1ab6c683df33974273877e1681985312434a414d864736f6c63430008040033",
  "linkReferences": {},
  "deployedLinkReferences": {}
}